{
  "_format": "hh-sol-artifact-1",
  "contractName": "PancakeSwapLottery",
  "sourceName": "contracts/PancakeSwapLottery.sol",
  "abi": [
    {
      "inputs": [
        {
          "internalType": "address",
          "name": "_GFTTokenAddress",
          "type": "address"
        },
        {
          "internalType": "address",
          "name": "_randomGeneratorAddress",
          "type": "address"
        }
      ],
      "stateMutability": "nonpayable",
      "type": "constructor"
    },
    {
      "anonymous": false,
      "inputs": [
        {
          "indexed": false,
          "internalType": "address",
          "name": "token",
          "type": "address"
        },
        {
          "indexed": false,
          "internalType": "uint256",
          "name": "amount",
          "type": "uint256"
        }
      ],
      "name": "AdminTokenRecovery",
      "type": "event"
    },
    {
      "anonymous": false,
      "inputs": [
        {
          "indexed": true,
          "internalType": "uint256",
          "name": "lotteryId",
          "type": "uint256"
        }
      ],
      "name": "LotteryClose",
      "type": "event"
    },
    {
      "anonymous": false,
      "inputs": [
        {
          "indexed": true,
          "internalType": "uint256",
          "name": "lotteryId",
          "type": "uint256"
        },
        {
          "indexed": false,
          "internalType": "uint256",
          "name": "injectedAmount",
          "type": "uint256"
        }
      ],
      "name": "LotteryInjection",
      "type": "event"
    },
    {
      "anonymous": false,
      "inputs": [
        {
          "indexed": true,
          "internalType": "uint256",
          "name": "lotteryId",
          "type": "uint256"
        },
        {
          "indexed": false,
          "internalType": "uint256",
          "name": "finalNumber",
          "type": "uint256"
        }
      ],
      "name": "LotteryNumberDrawn",
      "type": "event"
    },
    {
      "anonymous": false,
      "inputs": [
        {
          "indexed": true,
          "internalType": "uint256",
          "name": "lotteryId",
          "type": "uint256"
        },
        {
          "indexed": false,
          "internalType": "uint256",
          "name": "startTime",
          "type": "uint256"
        },
        {
          "indexed": false,
          "internalType": "uint256",
          "name": "endTime",
          "type": "uint256"
        },
        {
          "indexed": false,
          "internalType": "uint256",
          "name": "priceTicketInGFT",
          "type": "uint256"
        },
        {
          "indexed": false,
          "internalType": "uint256",
          "name": "firstTicketId",
          "type": "uint256"
        },
        {
          "indexed": false,
          "internalType": "uint256",
          "name": "injectedAmount",
          "type": "uint256"
        }
      ],
      "name": "LotteryOpen",
      "type": "event"
    },
    {
      "anonymous": false,
      "inputs": [
        {
          "indexed": false,
          "internalType": "address",
          "name": "operator",
          "type": "address"
        },
        {
          "indexed": false,
          "internalType": "address",
          "name": "treasury",
          "type": "address"
        },
        {
          "indexed": false,
          "internalType": "address",
          "name": "injector",
          "type": "address"
        },
        {
          "indexed": false,
          "internalType": "address",
          "name": "NFT",
          "type": "address"
        }
      ],
      "name": "NewOperatorAndTreasuryAndInjectorAddresses",
      "type": "event"
    },
    {
      "anonymous": false,
      "inputs": [
        {
          "indexed": true,
          "internalType": "address",
          "name": "randomGenerator",
          "type": "address"
        }
      ],
      "name": "NewRandomGenerator",
      "type": "event"
    },
    {
      "anonymous": false,
      "inputs": [
        {
          "indexed": false,
          "internalType": "uint256",
          "name": "tokenId",
          "type": "uint256"
        }
      ],
      "name": "NewTokenId",
      "type": "event"
    },
    {
      "anonymous": false,
      "inputs": [
        {
          "indexed": true,
          "internalType": "address",
          "name": "previousOwner",
          "type": "address"
        },
        {
          "indexed": true,
          "internalType": "address",
          "name": "newOwner",
          "type": "address"
        }
      ],
      "name": "OwnershipTransferred",
      "type": "event"
    },
    {
      "anonymous": false,
      "inputs": [
        {
          "indexed": true,
          "internalType": "address",
          "name": "claimer",
          "type": "address"
        },
        {
          "indexed": false,
          "internalType": "uint256",
          "name": "lotteryId",
          "type": "uint256"
        },
        {
          "indexed": false,
          "internalType": "uint256",
          "name": "purchaseId",
          "type": "uint256"
        },
        {
          "indexed": false,
          "internalType": "uint32",
          "name": "finalNumber",
          "type": "uint32"
        },
        {
          "indexed": false,
          "internalType": "bool",
          "name": "winningCondition",
          "type": "bool"
        }
      ],
      "name": "TicketsClaim",
      "type": "event"
    },
    {
      "anonymous": false,
      "inputs": [
        {
          "indexed": true,
          "internalType": "address",
          "name": "buyer",
          "type": "address"
        },
        {
          "indexed": true,
          "internalType": "uint256",
          "name": "lotteryId",
          "type": "uint256"
        },
        {
          "indexed": false,
          "internalType": "uint256",
          "name": "numberOfTickets",
          "type": "uint256"
        }
      ],
      "name": "TicketsPurchase",
      "type": "event"
    },
    {
      "inputs": [],
      "name": "GFTToken",
      "outputs": [
        {
          "internalType": "contract IERC20",
          "name": "",
          "type": "address"
        }
      ],
      "stateMutability": "view",
      "type": "function"
    },
    {
      "inputs": [],
      "name": "MAX_LENGTH_LOTTERY",
      "outputs": [
        {
          "internalType": "uint256",
          "name": "",
          "type": "uint256"
        }
      ],
      "stateMutability": "view",
      "type": "function"
    },
    {
      "inputs": [],
      "name": "MIN_DISCOUNT_DIVISOR",
      "outputs": [
        {
          "internalType": "uint256",
          "name": "",
          "type": "uint256"
        }
      ],
      "stateMutability": "view",
      "type": "function"
    },
    {
      "inputs": [],
      "name": "MIN_LENGTH_LOTTERY",
      "outputs": [
        {
          "internalType": "uint256",
          "name": "",
          "type": "uint256"
        }
      ],
      "stateMutability": "view",
      "type": "function"
    },
    {
      "inputs": [],
      "name": "NFTAddress",
      "outputs": [
        {
          "internalType": "address",
          "name": "",
          "type": "address"
        }
      ],
      "stateMutability": "view",
      "type": "function"
    },
    {
      "inputs": [
        {
          "internalType": "uint256",
          "name": "_lotteryId",
          "type": "uint256"
        },
        {
          "internalType": "uint32",
          "name": "_numberOfTickets",
          "type": "uint32"
        }
      ],
      "name": "buyTickets",
      "outputs": [],
      "stateMutability": "nonpayable",
      "type": "function"
    },
    {
      "inputs": [
        {
          "internalType": "uint256",
          "name": "_discountDivisor",
          "type": "uint256"
        },
        {
          "internalType": "uint256",
          "name": "_priceTicket",
          "type": "uint256"
        },
        {
          "internalType": "uint256",
          "name": "_numberOfTickets",
          "type": "uint256"
        }
      ],
      "name": "calculateTotalPriceForBulkTickets",
      "outputs": [
        {
          "internalType": "uint256",
          "name": "",
          "type": "uint256"
        }
      ],
      "stateMutability": "pure",
      "type": "function"
    },
    {
      "inputs": [
        {
          "internalType": "address",
          "name": "_randomGeneratorAddress",
          "type": "address"
        }
      ],
      "name": "changeRandomGenerator",
      "outputs": [],
      "stateMutability": "nonpayable",
      "type": "function"
    },
    {
      "inputs": [
        {
          "internalType": "uint256",
          "name": "_lotteryId",
          "type": "uint256"
        },
        {
          "internalType": "uint256",
          "name": "_purchaseId",
          "type": "uint256"
        }
      ],
      "name": "claimTickets",
      "outputs": [],
      "stateMutability": "nonpayable",
      "type": "function"
    },
    {
      "inputs": [
        {
          "internalType": "uint256",
          "name": "_lotteryId",
          "type": "uint256"
        }
      ],
      "name": "closeLottery",
      "outputs": [],
      "stateMutability": "nonpayable",
      "type": "function"
    },
    {
      "inputs": [],
      "name": "currentLotteryId",
      "outputs": [
        {
          "internalType": "uint256",
          "name": "",
          "type": "uint256"
        }
      ],
      "stateMutability": "view",
      "type": "function"
    },
    {
      "inputs": [
        {
          "internalType": "uint256",
          "name": "_lotteryId",
          "type": "uint256"
        }
      ],
      "name": "drawFinalNumberAndMakeLotteryClaimable",
      "outputs": [],
      "stateMutability": "nonpayable",
      "type": "function"
    },
    {
      "inputs": [],
      "name": "endNumber",
      "outputs": [
        {
          "internalType": "uint32",
          "name": "",
          "type": "uint32"
        }
      ],
      "stateMutability": "view",
      "type": "function"
    },
    {
      "inputs": [
        {
          "internalType": "uint256",
          "name": "_lotteryId",
          "type": "uint256"
        },
        {
          "internalType": "uint256",
          "name": "_amount",
          "type": "uint256"
        }
      ],
      "name": "injectFunds",
      "outputs": [],
      "stateMutability": "nonpayable",
      "type": "function"
    },
    {
      "inputs": [],
      "name": "injectorAddress",
      "outputs": [
        {
          "internalType": "address",
          "name": "",
          "type": "address"
        }
      ],
      "stateMutability": "view",
      "type": "function"
    },
    {
      "inputs": [],
      "name": "maxNumberTicketsPerBuyOrClaim",
      "outputs": [
        {
          "internalType": "uint256",
          "name": "",
          "type": "uint256"
        }
      ],
      "stateMutability": "view",
      "type": "function"
    },
    {
      "inputs": [],
      "name": "maxPriceTicketInGFT",
      "outputs": [
        {
          "internalType": "uint256",
          "name": "",
          "type": "uint256"
        }
      ],
      "stateMutability": "view",
      "type": "function"
    },
    {
      "inputs": [],
      "name": "minPriceTicketInGFT",
      "outputs": [
        {
          "internalType": "uint256",
          "name": "",
          "type": "uint256"
        }
      ],
      "stateMutability": "view",
      "type": "function"
    },
    {
      "inputs": [],
      "name": "operatorAddress",
      "outputs": [
        {
          "internalType": "address",
          "name": "",
          "type": "address"
        }
      ],
      "stateMutability": "view",
      "type": "function"
    },
    {
      "inputs": [],
      "name": "owner",
      "outputs": [
        {
          "internalType": "address",
          "name": "",
          "type": "address"
        }
      ],
      "stateMutability": "view",
      "type": "function"
    },
    {
      "inputs": [],
      "name": "purchaseId",
      "outputs": [
        {
          "internalType": "uint32",
          "name": "",
          "type": "uint32"
        }
      ],
      "stateMutability": "view",
      "type": "function"
    },
    {
      "inputs": [],
      "name": "randomGenerator",
      "outputs": [
        {
          "internalType": "contract IRandomNumberGenerator",
          "name": "",
          "type": "address"
        }
      ],
      "stateMutability": "view",
      "type": "function"
    },
    {
      "inputs": [
        {
          "internalType": "address",
          "name": "_tokenAddress",
          "type": "address"
        },
        {
          "internalType": "uint256",
          "name": "_tokenAmount",
          "type": "uint256"
        }
      ],
      "name": "recoverWrongTokens",
      "outputs": [],
      "stateMutability": "nonpayable",
      "type": "function"
    },
    {
      "inputs": [],
      "name": "renounceOwnership",
      "outputs": [],
      "stateMutability": "nonpayable",
      "type": "function"
    },
    {
      "inputs": [
        {
          "internalType": "uint256",
          "name": "_maxNumberTicketsPerBuy",
          "type": "uint256"
        }
      ],
      "name": "setMaxNumberTicketsPerBuy",
      "outputs": [],
      "stateMutability": "nonpayable",
      "type": "function"
    },
    {
      "inputs": [
        {
          "internalType": "uint256",
          "name": "_minPriceTicketInGFT",
          "type": "uint256"
        },
        {
          "internalType": "uint256",
          "name": "_maxPriceTicketInGFT",
          "type": "uint256"
        }
      ],
      "name": "setMinAndMaxTicketPriceInGFT",
      "outputs": [],
      "stateMutability": "nonpayable",
      "type": "function"
    },
    {
      "inputs": [
        {
          "internalType": "address",
          "name": "_operatorAddress",
          "type": "address"
        },
        {
          "internalType": "address",
          "name": "_treasuryAddress",
          "type": "address"
        },
        {
          "internalType": "address",
          "name": "_injectorAddress",
          "type": "address"
        },
        {
          "internalType": "address",
          "name": "_NFTAddress",
          "type": "address"
        }
      ],
      "name": "setOperatorAndTreasuryAndInjectorAndNFTAddresses",
      "outputs": [],
      "stateMutability": "nonpayable",
      "type": "function"
    },
    {
      "inputs": [
        {
          "internalType": "uint256",
          "name": "_tokenId",
          "type": "uint256"
        }
      ],
      "name": "setTokenId",
      "outputs": [],
      "stateMutability": "nonpayable",
      "type": "function"
    },
    {
      "inputs": [
        {
          "internalType": "uint256",
          "name": "_endTime",
          "type": "uint256"
        },
        {
          "internalType": "uint256",
          "name": "_priceTicketInGFT",
          "type": "uint256"
        },
        {
          "internalType": "uint256",
          "name": "_discountDivisor",
          "type": "uint256"
        },
        {
          "internalType": "uint256",
          "name": "_tokenId",
          "type": "uint256"
        }
      ],
      "name": "startLottery",
      "outputs": [],
      "stateMutability": "nonpayable",
      "type": "function"
    },
    {
      "inputs": [
        {
          "internalType": "address",
          "name": "newOwner",
          "type": "address"
        }
      ],
      "name": "transferOwnership",
      "outputs": [],
      "stateMutability": "nonpayable",
      "type": "function"
    },
    {
      "inputs": [],
      "name": "treasuryAddress",
      "outputs": [
        {
          "internalType": "address",
          "name": "",
          "type": "address"
        }
      ],
      "stateMutability": "view",
      "type": "function"
    },
    {
      "inputs": [],
      "name": "viewCurrentLotteryId",
      "outputs": [
        {
          "internalType": "uint256",
          "name": "",
          "type": "uint256"
        }
      ],
      "stateMutability": "view",
      "type": "function"
    },
    {
      "inputs": [
        {
          "internalType": "uint256",
          "name": "_lotteryId",
          "type": "uint256"
        }
      ],
      "name": "viewLottery",
      "outputs": [
        {
          "components": [
            {
              "internalType": "enum PancakeSwapLottery.Status",
              "name": "status",
              "type": "uint8"
            },
            {
              "internalType": "uint256",
              "name": "startTime",
              "type": "uint256"
            },
            {
              "internalType": "uint256",
              "name": "endTime",
              "type": "uint256"
            },
            {
              "internalType": "uint256",
              "name": "priceTicketInGFT",
              "type": "uint256"
            },
            {
              "internalType": "uint256",
              "name": "discountDivisor",
              "type": "uint256"
            },
            {
              "internalType": "uint256",
              "name": "firstTicketId",
              "type": "uint256"
            },
            {
              "internalType": "uint256",
              "name": "amountCollectedInGFT",
              "type": "uint256"
            },
            {
              "internalType": "uint32",
              "name": "finalNumber",
              "type": "uint32"
            },
            {
              "internalType": "uint256",
              "name": "tokenId",
              "type": "uint256"
            }
          ],
          "internalType": "struct PancakeSwapLottery.Lottery",
          "name": "",
          "type": "tuple"
        }
      ],
      "stateMutability": "view",
      "type": "function"
    },
    {
      "inputs": [
        {
          "internalType": "address",
          "name": "_user",
          "type": "address"
        },
        {
          "internalType": "uint256",
          "name": "_lotteryId",
          "type": "uint256"
        }
      ],
      "name": "viewUserInfoForLotteryId",
      "outputs": [
        {
          "internalType": "uint256[]",
          "name": "",
          "type": "uint256[]"
        },
        {
          "internalType": "uint256[]",
          "name": "",
          "type": "uint256[]"
        },
        {
          "internalType": "bool[]",
          "name": "",
          "type": "bool[]"
        }
      ],
      "stateMutability": "view",
      "type": "function"
    }
  ],
  "bytecode": "0x6080604052600780546001600160401b031916905560646008556802b5e3af16b18800006009556611c37937e08000600a553480156200003e57600080fd5b5060405162003cef38038062003cef833981016040819052620000619162000112565b60016000556200007133620000a3565b600b80546001600160a01b039384166001600160a01b031991821617909155600c805492909316911617905562000149565b600180546001600160a01b038381166001600160a01b0319831681179093556040519116919082907f8be0079c531659141344cd1fd0a4f28419497f9722a3daafe3b4186f6b6457e090600090a35050565b80516001600160a01b03811681146200010d57600080fd5b919050565b6000806040838503121562000125578182fd5b6200013083620000f5565b91506200014060208401620000f5565b90509250929050565b613b9680620001596000396000f3fe608060405234801561001057600080fd5b50600436106102265760003560e01c80638da5cb5b1161012a578063c4937ab9116100bd578063db19da0d1161008c578063edd19b5d11610071578063edd19b5d146104e4578063f2fde38b146104f7578063faad994d1461050a57600080fd5b8063db19da0d146104ba578063dcbad90d146104c457600080fd5b8063c4937ab914610452578063c5f956af14610465578063c929ccf314610485578063d7a979c31461049857600080fd5b80639ab425cb116100f95780639ab425cb146103f45780639c384653146104075780639d8ca53114610427578063b344c2b31461043a57600080fd5b80638da5cb5b146103a75780638f6d9f35146103c557806395fd42a1146103ce57806398359fa1146103e157600080fd5b8063310c87cc116101bd5780636b8737881161018c578063715018a611610171578063715018a6146103975780637cb583bd1461022b57806380a061601461039f57600080fd5b80636b8737881461037b5780636be4097c1461038e57600080fd5b8063310c87cc146103225780633f138d4b14610342578063471aeab41461035557806369b9d03e1461036857600080fd5b80632423807a116101f95780632423807a146102ba578063249167fc146102da578063254ae891146102ef57806330cf83201461030f57600080fd5b806307fb5a9c1461022b578063089af91314610247578063127effb21461026c5780631fe86c6b146102b1575b600080fd5b61023461012c81565b6040519081526020015b60405180910390f35b6007546102579063ffffffff1681565b60405163ffffffff909116815260200161023e565b60035461028c9073ffffffffffffffffffffffffffffffffffffffff1681565b60405173ffffffffffffffffffffffffffffffffffffffff909116815260200161023e565b61023460085481565b6102cd6102c83660046136ed565b610513565b60405161023e91906138f6565b6102ed6102e8366004613651565b61065b565b005b600b5461028c9073ffffffffffffffffffffffffffffffffffffffff1681565b6102ed61031d36600461371d565b61091c565b60055461028c9073ffffffffffffffffffffffffffffffffffffffff1681565b6102ed6103503660046136a4565b610e61565b6102ed61036336600461371d565b610f62565b6102ed610376366004613769565b61113c565b6102ed6103893660046136ed565b611776565b61023460065481565b6102ed6117ea565b600654610234565b60015473ffffffffffffffffffffffffffffffffffffffff1661028c565b61023460095481565b6102ed6103dc36600461379a565b6117fe565b6102ed6103ef366004613637565b611dba565b6102ed61040236600461371d565b612070565b60025461028c9073ffffffffffffffffffffffffffffffffffffffff1681565b6102ed6104353660046136ed565b6120ed565b60075461025790640100000000900463ffffffff1681565b61023461046036600461373e565b612473565b60045461028c9073ffffffffffffffffffffffffffffffffffffffff1681565b6102ed6104933660046136ed565b61255d565b6104ab6104a63660046136a4565b6127cb565b60405161023e9392919061383b565b6102346205472c81565b600c5461028c9073ffffffffffffffffffffffffffffffffffffffff1681565b6102ed6104f23660046136ed565b612c2b565b6102ed610505366004613637565b61307d565b610234600a5481565b6105696040805161012081019091528060008152602001600081526020016000815260200160008152602001600081526020016000815260200160008152602001600063ffffffff168152602001600081525090565b6000828152600d602052604090819020815161012081019092528054829060ff1660038111156105c2577f4e487b7100000000000000000000000000000000000000000000000000000000600052602160045260246000fd5b60038111156105fa577f4e487b7100000000000000000000000000000000000000000000000000000000600052602160045260246000fd5b815260018201546020820152600282015460408201526003820154606082015260048201546080820152600582015460a0820152600682015460c0820152600782015463ffffffff1660e08201526008909101546101009091015292915050565b610663613134565b73ffffffffffffffffffffffffffffffffffffffff84166106e5576040517f08c379a000000000000000000000000000000000000000000000000000000000815260206004820152601660248201527f43616e6e6f74206265207a65726f20616464726573730000000000000000000060448201526064015b60405180910390fd5b73ffffffffffffffffffffffffffffffffffffffff8316610762576040517f08c379a000000000000000000000000000000000000000000000000000000000815260206004820152601660248201527f43616e6e6f74206265207a65726f20616464726573730000000000000000000060448201526064016106dc565b73ffffffffffffffffffffffffffffffffffffffff82166107df576040517f08c379a000000000000000000000000000000000000000000000000000000000815260206004820152601660248201527f43616e6e6f74206265207a65726f20616464726573730000000000000000000060448201526064016106dc565b73ffffffffffffffffffffffffffffffffffffffff811661085c576040517f08c379a000000000000000000000000000000000000000000000000000000000815260206004820152601660248201527f43616e6e6f74206265207a65726f20616464726573730000000000000000000060448201526064016106dc565b6003805473ffffffffffffffffffffffffffffffffffffffff8681167fffffffffffffffffffffffff000000000000000000000000000000000000000092831681179093556004805487831690841681179091556002805487841690851681179091556005805493871693909416831790935560408051948552602085019190915283019190915260608201527ffaa5a6d898018caa25925a386a8fbac436351bde8b2aa41e5e59d05138e721b09060800160405180910390a150505050565b333b15610985576040517f08c379a000000000000000000000000000000000000000000000000000000000815260206004820152601460248201527f436f6e7472616374206e6f7420616c6c6f77656400000000000000000000000060448201526064016106dc565b3332146109ee576040517f08c379a000000000000000000000000000000000000000000000000000000000815260206004820152601a60248201527f50726f787920636f6e7472616374206e6f7420616c6c6f77656400000000000060448201526064016106dc565b60026000541415610a5b576040517f08c379a000000000000000000000000000000000000000000000000000000000815260206004820152601f60248201527f5265656e7472616e637947756172643a207265656e7472616e742063616c6c0060448201526064016106dc565b6002600055336000908152600e602090815260408083208584529091529020805482908110610ab3577f4e487b7100000000000000000000000000000000000000000000000000000000600052603260045260246000fd5b600091825260209091206004909102016002015473ffffffffffffffffffffffffffffffffffffffff163314610b45576040517f08c379a000000000000000000000000000000000000000000000000000000000815260206004820152600d60248201527f4e6f7420746865206f776e65720000000000000000000000000000000000000060448201526064016106dc565b6000828152600d6020908152604080832060070154338452600e83528184208685529092528220805463ffffffff909216929184908110610baf577f4e487b7100000000000000000000000000000000000000000000000000000000600052603260045260246000fd5b6000918252602080832060049290920290910160020180547fffffffffffffffffffffffff00000000000000000000000000000000000000001673ffffffffffffffffffffffffffffffffffffffff9490941693909317909255338152600e82526040808220868352909252908120805463ffffffff8416919085908110610c60577f4e487b7100000000000000000000000000000000000000000000000000000000600052603260045260246000fd5b90600052602060002090600402016001015410158015610d595750336000908152600e602090815260408083208784529091529020805463ffffffff8416919085908110610cd7577f4e487b7100000000000000000000000000000000000000000000000000000000600052603260045260246000fd5b6000918252602080832060036004909302019190910154338352600e825260408084208985529092529120805486908110610d3b577f4e487b7100000000000000000000000000000000000000000000000000000000600052603260045260246000fd5b906000526020600020906004020160010154610d579190613a2d565b105b90508015610e06576005546000858152600d6020526040908190206008015490517f42842e0e000000000000000000000000000000000000000000000000000000008152306004820152336024820152604481019190915273ffffffffffffffffffffffffffffffffffffffff909116906342842e0e90606401600060405180830381600087803b158015610ded57600080fd5b505af1158015610e01573d6000803e3d6000fd5b505050505b604080518581526020810185905263ffffffff8416818301528215156060820152905133917f844adb01c6f0ac3a159670308d9c5c7d2bedf80df4ad12cca1c5beac1c2cab49919081900360800190a2505060016000555050565b610e69613134565b600b5473ffffffffffffffffffffffffffffffffffffffff83811691161415610eee576040517f08c379a000000000000000000000000000000000000000000000000000000000815260206004820152601360248201527f43616e6e6f742062652047465420746f6b656e0000000000000000000000000060448201526064016106dc565b610f0f73ffffffffffffffffffffffffffffffffffffffff831633836131b5565b6040805173ffffffffffffffffffffffffffffffffffffffff84168152602081018390527f74545154aac348a3eac92596bd1971957ca94795f4e954ec5f613b55fab78129910160405180910390a15050565b60015473ffffffffffffffffffffffffffffffffffffffff16331480610f9f575060025473ffffffffffffffffffffffffffffffffffffffff1633145b611005576040517f08c379a000000000000000000000000000000000000000000000000000000000815260206004820152601560248201527f4e6f74206f776e6572206f7220696e6a6563746f72000000000000000000000060448201526064016106dc565b60016000838152600d602052604090205460ff166003811115611051577f4e487b7100000000000000000000000000000000000000000000000000000000600052602160045260246000fd5b146110b8576040517f08c379a000000000000000000000000000000000000000000000000000000000815260206004820152601060248201527f4c6f7474657279206e6f74206f70656e0000000000000000000000000000000060448201526064016106dc565b600b546110dd9073ffffffffffffffffffffffffffffffffffffffff1633308461328e565b6000828152600d6020526040812060060180548392906110fe90849061399c565b909155505060405181815282907f1bbd659dd628a25f7ff2eabb69c74a56939c539728282275c1c9c1a2d3e340499060200160405180910390a25050565b60035473ffffffffffffffffffffffffffffffffffffffff1633146111bd576040517f08c379a000000000000000000000000000000000000000000000000000000000815260206004820152600c60248201527f4e6f74206f70657261746f72000000000000000000000000000000000000000060448201526064016106dc565b6005546040517f70a0823100000000000000000000000000000000000000000000000000000000815230600482015260009173ffffffffffffffffffffffffffffffffffffffff16906370a082319060240160206040518083038186803b15801561122757600080fd5b505afa15801561123b573d6000803e3d6000fd5b505050506040513d601f19601f8201168201806040525081019061125f9190613705565b116112c6576040517f08c379a000000000000000000000000000000000000000000000000000000000815260206004820152601560248201527f5072697a65204e4654206e6f742070726573656e74000000000000000000000060448201526064016106dc565b60008111611356576040517f08c379a000000000000000000000000000000000000000000000000000000000815260206004820152602160248201527f546f6b656e4964206d7573742062652067726561746572207468616e207a657260448201527f6f0000000000000000000000000000000000000000000000000000000000000060648201526084016106dc565b60065415806113b1575060036006546000908152600d602052604090205460ff1660038111156113af577f4e487b7100000000000000000000000000000000000000000000000000000000600052602160045260246000fd5b145b611417576040517f08c379a000000000000000000000000000000000000000000000000000000000815260206004820152601960248201527f4e6f742074696d6520746f207374617274206c6f74746572790000000000000060448201526064016106dc565b61012c6114244286613a2d565b11801561143c57506205472c61143a4286613a2d565b105b6114a2576040517f08c379a000000000000000000000000000000000000000000000000000000000815260206004820152601f60248201527f4c6f7474657279206c656e677468206f757473696465206f662072616e67650060448201526064016106dc565b600a5483101580156114b657506009548311155b61151c576040517f08c379a000000000000000000000000000000000000000000000000000000000815260206004820152601160248201527f4f757473696465206f66206c696d69747300000000000000000000000000000060448201526064016106dc565b61012c821015611588576040517f08c379a000000000000000000000000000000000000000000000000000000000815260206004820152601860248201527f446973636f756e742064697669736f7220746f6f206c6f77000000000000000060448201526064016106dc565b6006805490600061159883613a70565b9091555050600780547fffffffffffffffffffffffffffffffffffffffffffffffff000000000000000016905560408051610120810190915280600181524260208083019190915260408083018890526060830187905260808301869052600060a0840181905260c0840181905260e084018190526101009093018590526006548352600d90915290208151815482907fffffffffffffffffffffffffffffffffffffffffffffffffffffffffffffff00166001836003811115611685577f4e487b7100000000000000000000000000000000000000000000000000000000600052602160045260246000fd5b0217905550602082810151600183015560408084015160028401556060808501516003850155608080860151600486015560a080870151600587015560c087015160068088019190915560e0880151600780890180547fffffffffffffffffffffffffffffffffffffffffffffffffffffffff000000001663ffffffff9384161790556101009099015160089098019790975554965484514281529586018c90529385018a9052640100000000909304909416908301526000928201929092527f367e70f8c0e0c0a6504d92172bda155c02022d532fc85b5d66a9c49e31c8bc77910160405180910390a250505050565b61177e613134565b806117e5576040517f08c379a000000000000000000000000000000000000000000000000000000000815260206004820152600b60248201527f4d757374206265203e203000000000000000000000000000000000000000000060448201526064016106dc565b600855565b6117f2613134565b6117fc60006132f2565b565b333b15611867576040517f08c379a000000000000000000000000000000000000000000000000000000000815260206004820152601460248201527f436f6e7472616374206e6f7420616c6c6f77656400000000000000000000000060448201526064016106dc565b3332146118d0576040517f08c379a000000000000000000000000000000000000000000000000000000000815260206004820152601a60248201527f50726f787920636f6e7472616374206e6f7420616c6c6f77656400000000000060448201526064016106dc565b6002600054141561193d576040517f08c379a000000000000000000000000000000000000000000000000000000000815260206004820152601f60248201527f5265656e7472616e637947756172643a207265656e7472616e742063616c6c0060448201526064016106dc565b600260005563ffffffff81166119af576040517f08c379a000000000000000000000000000000000000000000000000000000000815260206004820152601e60248201527f596f75206d75737420627574206174206c656173742031207469636b6574000060448201526064016106dc565b6008548163ffffffff161115611a21576040517f08c379a000000000000000000000000000000000000000000000000000000000815260206004820152601060248201527f546f6f206d616e79207469636b6574730000000000000000000000000000000060448201526064016106dc565b60016000838152600d602052604090205460ff166003811115611a6d577f4e487b7100000000000000000000000000000000000000000000000000000000600052602160045260246000fd5b14611ad4576040517f08c379a000000000000000000000000000000000000000000000000000000000815260206004820152601360248201527f4c6f7474657279206973206e6f74206f70656e0000000000000000000000000060448201526064016106dc565b6000828152600d60205260409020600201544210611b4e576040517f08c379a000000000000000000000000000000000000000000000000000000000815260206004820152600f60248201527f4c6f7474657279206973206f766572000000000000000000000000000000000060448201526064016106dc565b60078054829190600090611b6990849063ffffffff166139b4565b82546101009290920a63ffffffff8181021990931691831602179091556000848152600d602052604081206004810154600390910154919350611bb0929091908516613369565b6040805160808101825260075463ffffffff6401000000008204811683529081166020830152339282018390528581166060830152600b549394509092611c159273ffffffffffffffffffffffffffffffffffffffff91909116913090869061328e16565b6000848152600d602052604081206006018054849290611c3690849061399c565b9091555050336000908152600e6020908152604080832087845290915290206007548154839291640100000000900463ffffffff16908110611ca1577f4e487b7100000000000000000000000000000000000000000000000000000000600052603260045260246000fd5b60009182526020918290208351600492830290910190815591830151600183015560408301516002830180547fffffffffffffffffffffffff00000000000000000000000000000000000000001673ffffffffffffffffffffffffffffffffffffffff90921691909117905560609092015160039091015560078054640100000000900463ffffffff1691611d3583613aa9565b91906101000a81548163ffffffff021916908363ffffffff16021790555050833373ffffffffffffffffffffffffffffffffffffffff167fd7d247b583de1023852eef87b48f54354dbec771d01bc2cc49e96094efc322b985604051611da7919063ffffffff91909116815260200190565b60405180910390a3505060016000555050565b611dc2613134565b6006541580611e1d575060036006546000908152600d602052604090205460ff166003811115611e1b577f4e487b7100000000000000000000000000000000000000000000000000000000600052602160045260246000fd5b145b611e83576040517f08c379a000000000000000000000000000000000000000000000000000000000815260206004820152601860248201527f4c6f7474657279206e6f7420696e20636c61696d61626c65000000000000000060448201526064016106dc565b60065460075460408051602081019390935264010000000090910460e01b7fffffffff00000000000000000000000000000000000000000000000000000000169082015273ffffffffffffffffffffffffffffffffffffffff82169063b37217a490604401604080518083037fffffffffffffffffffffffffffffffffffffffffffffffffffffffffffffffe001815290829052805160209091012060e083901b7fffffffff000000000000000000000000000000000000000000000000000000001682526004820152602401600060405180830381600087803b158015611f6a57600080fd5b505af1158015611f7e573d6000803e3d6000fd5b505050508073ffffffffffffffffffffffffffffffffffffffff1663a1c4f55a6040518163ffffffff1660e01b815260040160206040518083038186803b158015611fc857600080fd5b505afa158015611fdc573d6000803e3d6000fd5b505050506040513d601f19601f8201168201806040525081019061200091906137c9565b50600c80547fffffffffffffffffffffffff00000000000000000000000000000000000000001673ffffffffffffffffffffffffffffffffffffffff83169081179091556040517f383f8cb39dfa7c3fb901a460dd449ea924868f0a92ff03da64740fffa5f1de6290600090a250565b612078613134565b808211156120e2576040517f08c379a000000000000000000000000000000000000000000000000000000000815260206004820152601b60248201527f6d696e5072696365206d757374206265203c206d61785072696365000000000060448201526064016106dc565b600a91909155600955565b60035473ffffffffffffffffffffffffffffffffffffffff16331461216e576040517f08c379a000000000000000000000000000000000000000000000000000000000815260206004820152600c60248201527f4e6f74206f70657261746f72000000000000000000000000000000000000000060448201526064016106dc565b600260005414156121db576040517f08c379a000000000000000000000000000000000000000000000000000000000815260206004820152601f60248201527f5265656e7472616e637947756172643a207265656e7472616e742063616c6c0060448201526064016106dc565b600260005560016000828152600d602052604090205460ff16600381111561222c577f4e487b7100000000000000000000000000000000000000000000000000000000600052602160045260246000fd5b14612293576040517f08c379a000000000000000000000000000000000000000000000000000000000815260206004820152601060248201527f4c6f7474657279206e6f74206f70656e0000000000000000000000000000000060448201526064016106dc565b6000818152600d6020526040902060020154421161230d576040517f08c379a000000000000000000000000000000000000000000000000000000000815260206004820152601060248201527f4c6f7474657279206e6f74206f7665720000000000000000000000000000000060448201526064016106dc565b600c54600754604080516020810185905264010000000090920460e01b7fffffffff00000000000000000000000000000000000000000000000000000000169082015273ffffffffffffffffffffffffffffffffffffffff9091169063b37217a490604401604080518083037fffffffffffffffffffffffffffffffffffffffffffffffffffffffffffffffe001815290829052805160209091012060e083901b7fffffffff000000000000000000000000000000000000000000000000000000001682526004820152602401600060405180830381600087803b1580156123f457600080fd5b505af1158015612408573d6000803e3d6000fd5b5050506000828152600d602052604080822080547fffffffffffffffffffffffffffffffffffffffffffffffffffffffffffffff00166002179055518392507f8bc84e5d97533c428862626ac41fe7bc09b1ea2ed5e9e330d84092db8df153669190a2506001600055565b600061012c8410156124e1576040517f08c379a000000000000000000000000000000000000000000000000000000000815260206004820152601f60248201527f4d757374206265203e3d204d494e5f444953434f554e545f44495649534f520060448201526064016106dc565b81612548576040517f08c379a000000000000000000000000000000000000000000000000000000000815260206004820152601d60248201527f4e756d626572206f66207469636b657473206d757374206265203e203000000060448201526064016106dc565b612553848484613369565b90505b9392505050565b60035473ffffffffffffffffffffffffffffffffffffffff1633146125de576040517f08c379a000000000000000000000000000000000000000000000000000000000815260206004820152600c60248201527f4e6f74206f70657261746f72000000000000000000000000000000000000000060448201526064016106dc565b6005546040517f70a0823100000000000000000000000000000000000000000000000000000000815230600482015260009173ffffffffffffffffffffffffffffffffffffffff16906370a082319060240160206040518083038186803b15801561264857600080fd5b505afa15801561265c573d6000803e3d6000fd5b505050506040513d601f19601f820116820180604052508101906126809190613705565b116126e7576040517f08c379a000000000000000000000000000000000000000000000000000000000815260206004820152601560248201527f5072697a65204e4654206e6f742070726573656e74000000000000000000000060448201526064016106dc565b60008111612777576040517f08c379a000000000000000000000000000000000000000000000000000000000815260206004820152602160248201527f746f6b656e4964206d7573742062652067726561746572207468616e207a657260448201527f6f0000000000000000000000000000000000000000000000000000000000000060648201526084016106dc565b6006546000908152600d602052604090819020600801829055517f8a1767404395cfcd1267c6537e872277dde277a29ac6dea742a111469f324a58906127c09083815260200190565b60405180910390a150565b73ffffffffffffffffffffffffffffffffffffffff82166000908152600e60209081526040808320848452909152812054606091829182918167ffffffffffffffff811115612843577f4e487b7100000000000000000000000000000000000000000000000000000000600052604160045260246000fd5b60405190808252806020026020018201604052801561286c578160200160208202803683370190505b50905060008267ffffffffffffffff8111156128b1577f4e487b7100000000000000000000000000000000000000000000000000000000600052604160045260246000fd5b6040519080825280602002602001820160405280156128da578160200160208202803683370190505b50905060008367ffffffffffffffff81111561291f577f4e487b7100000000000000000000000000000000000000000000000000000000600052604160045260246000fd5b604051908082528060200260200182016040528015612948578160200160208202803683370190505b50905060005b84811015612c1b5773ffffffffffffffffffffffffffffffffffffffff8a166000908152600e602090815260408083208c845290915281208054839081106129bf577f4e487b7100000000000000000000000000000000000000000000000000000000600052603260045260246000fd5b600091825260209091206002600490920201015473ffffffffffffffffffffffffffffffffffffffff161415612a3f576001828281518110612a2a577f4e487b7100000000000000000000000000000000000000000000000000000000600052603260045260246000fd5b91151560209283029190910190910152612a8b565b6000828281518110612a7a577f4e487b7100000000000000000000000000000000000000000000000000000000600052603260045260246000fd5b911515602092830291909101909101525b73ffffffffffffffffffffffffffffffffffffffff8a166000908152600e602090815260408083208c84529091529020805482908110612af4577f4e487b7100000000000000000000000000000000000000000000000000000000600052603260045260246000fd5b906000526020600020906004020160010154848281518110612b3f577f4e487b7100000000000000000000000000000000000000000000000000000000600052603260045260246000fd5b60209081029190910181019190915273ffffffffffffffffffffffffffffffffffffffff8b166000908152600e825260408082208c835290925220805482908110612bb3577f4e487b7100000000000000000000000000000000000000000000000000000000600052603260045260246000fd5b906000526020600020906004020160030154838281518110612bfe577f4e487b7100000000000000000000000000000000000000000000000000000000600052603260045260246000fd5b602090810291909101015280612c1381613a70565b91505061294e565b5091955093509150509250925092565b60035473ffffffffffffffffffffffffffffffffffffffff163314612cac576040517f08c379a000000000000000000000000000000000000000000000000000000000815260206004820152600c60248201527f4e6f74206f70657261746f72000000000000000000000000000000000000000060448201526064016106dc565b60026000541415612d19576040517f08c379a000000000000000000000000000000000000000000000000000000000815260206004820152601f60248201527f5265656e7472616e637947756172643a207265656e7472616e742063616c6c0060448201526064016106dc565b60026000818155828152600d602052604090205460ff166003811115612d68577f4e487b7100000000000000000000000000000000000000000000000000000000600052602160045260246000fd5b14612dcf576040517f08c379a000000000000000000000000000000000000000000000000000000000815260206004820152601160248201527f4c6f7474657279206e6f7420636c6f736500000000000000000000000000000060448201526064016106dc565b600c60009054906101000a900473ffffffffffffffffffffffffffffffffffffffff1673ffffffffffffffffffffffffffffffffffffffff1663fbe5d9176040518163ffffffff1660e01b815260040160206040518083038186803b158015612e3757600080fd5b505afa158015612e4b573d6000803e3d6000fd5b505050506040513d601f19601f82011682018060405250810190612e6f9190613705565b8114612ed7576040517f08c379a000000000000000000000000000000000000000000000000000000000815260206004820152601160248201527f4e756d62657273206e6f7420647261776e00000000000000000000000000000060448201526064016106dc565b600754600c54604080517fa1c4f55a000000000000000000000000000000000000000000000000000000008152905160009363ffffffff169273ffffffffffffffffffffffffffffffffffffffff169163a1c4f55a916004808301926020929190829003018186803b158015612f4c57600080fd5b505afa158015612f60573d6000803e3d6000fd5b505050506040513d601f19601f82011682018060405250810190612f8491906137c9565b612f8e9190613acd565b612f999060016139b4565b6000838152600d6020526040902060078101805463ffffffff84167fffffffffffffffffffffffffffffffffffffffffffffffffffffffff0000000090911617905580547fffffffffffffffffffffffffffffffffffffffffffffffffffffffffffffff0016600317815560060154600454600b5492935090916130379173ffffffffffffffffffffffffffffffffffffffff9182169116836131b5565b60065460405163ffffffff841681527f5a724f8090e5112c7e2c0eca7eeba9abf1a26dfad55f3c06f87a281c6712add29060200160405180910390a25050600160005550565b613085613134565b73ffffffffffffffffffffffffffffffffffffffff8116613128576040517f08c379a000000000000000000000000000000000000000000000000000000000815260206004820152602660248201527f4f776e61626c653a206e6577206f776e657220697320746865207a65726f206160448201527f646472657373000000000000000000000000000000000000000000000000000060648201526084016106dc565b613131816132f2565b50565b60015473ffffffffffffffffffffffffffffffffffffffff1633146117fc576040517f08c379a000000000000000000000000000000000000000000000000000000000815260206004820181905260248201527f4f776e61626c653a2063616c6c6572206973206e6f7420746865206f776e657260448201526064016106dc565b60405173ffffffffffffffffffffffffffffffffffffffff83166024820152604481018290526132899084907fa9059cbb00000000000000000000000000000000000000000000000000000000906064015b604080517fffffffffffffffffffffffffffffffffffffffffffffffffffffffffffffffe08184030181529190526020810180517bffffffffffffffffffffffffffffffffffffffffffffffffffffffff167fffffffff00000000000000000000000000000000000000000000000000000000909316929092179091526133a0565b505050565b60405173ffffffffffffffffffffffffffffffffffffffff808516602483015283166044820152606481018290526132ec9085907f23b872dd0000000000000000000000000000000000000000000000000000000090608401613207565b50505050565b6001805473ffffffffffffffffffffffffffffffffffffffff8381167fffffffffffffffffffffffff0000000000000000000000000000000000000000831681179093556040519116919082907f8be0079c531659141344cd1fd0a4f28419497f9722a3daafe3b4186f6b6457e090600090a35050565b6000838261337882600161399c565b6133829190613a2d565b61338c84866139f0565b61339691906139f0565b61255391906139dc565b6000613402826040518060400160405280602081526020017f5361666545524332303a206c6f772d6c6576656c2063616c6c206661696c65648152508573ffffffffffffffffffffffffffffffffffffffff166134ac9092919063ffffffff16565b805190915015613289578080602001905181019061342091906136cd565b613289576040517f08c379a000000000000000000000000000000000000000000000000000000000815260206004820152602a60248201527f5361666545524332303a204552433230206f7065726174696f6e20646964206e60448201527f6f7420737563636565640000000000000000000000000000000000000000000060648201526084016106dc565b606061255384846000858573ffffffffffffffffffffffffffffffffffffffff85163b613535576040517f08c379a000000000000000000000000000000000000000000000000000000000815260206004820152601d60248201527f416464726573733a2063616c6c20746f206e6f6e2d636f6e747261637400000060448201526064016106dc565b6000808673ffffffffffffffffffffffffffffffffffffffff16858760405161355e919061381f565b60006040518083038185875af1925050503d806000811461359b576040519150601f19603f3d011682016040523d82523d6000602084013e6135a0565b606091505b50915091506135b08282866135bb565b979650505050505050565b606083156135ca575081612556565b8251156135da5782518084602001fd5b816040517f08c379a00000000000000000000000000000000000000000000000000000000081526004016106dc91906138a5565b803573ffffffffffffffffffffffffffffffffffffffff8116811461363257600080fd5b919050565b600060208284031215613648578081fd5b6125568261360e565b60008060008060808587031215613666578283fd5b61366f8561360e565b935061367d6020860161360e565b925061368b6040860161360e565b91506136996060860161360e565b905092959194509250565b600080604083850312156136b6578182fd5b6136bf8361360e565b946020939093013593505050565b6000602082840312156136de578081fd5b81518015158114612556578182fd5b6000602082840312156136fe578081fd5b5035919050565b600060208284031215613716578081fd5b5051919050565b6000806040838503121561372f578182fd5b50508035926020909101359150565b600080600060608486031215613752578283fd5b505081359360208301359350604090920135919050565b6000806000806080858703121561377e578384fd5b5050823594602084013594506040840135936060013592509050565b600080604083850312156137ac578182fd5b8235915060208301356137be81613b4e565b809150509250929050565b6000602082840312156137da578081fd5b815161255681613b4e565b6000815180845260208085019450808401835b83811015613814578151875295820195908201906001016137f8565b509495945050505050565b60008251613831818460208701613a44565b9190910192915050565b60608152600061384e60608301866137e5565b60208382038185015261386182876137e5565b84810360408601528551808252828701935090820190845b81811015613897578451151583529383019391830191600101613879565b509098975050505050505050565b60208152600082518060208401526138c4816040850160208701613a44565b601f017fffffffffffffffffffffffffffffffffffffffffffffffffffffffffffffffe0169190910160400192915050565b815161012082019060048110613935577f4e487b7100000000000000000000000000000000000000000000000000000000600052602160045260246000fd5b808352506020830151602083015260408301516040830152606083015160608301526080830151608083015260a083015160a083015260c083015160c083015260e083015161398c60e084018263ffffffff169052565b5061010092830151919092015290565b600082198211156139af576139af613af0565b500190565b600063ffffffff8083168185168083038211156139d3576139d3613af0565b01949350505050565b6000826139eb576139eb613b1f565b500490565b6000817fffffffffffffffffffffffffffffffffffffffffffffffffffffffffffffffff0483118215151615613a2857613a28613af0565b500290565b600082821015613a3f57613a3f613af0565b500390565b60005b83811015613a5f578181015183820152602001613a47565b838111156132ec5750506000910152565b60007fffffffffffffffffffffffffffffffffffffffffffffffffffffffffffffffff821415613aa257613aa2613af0565b5060010190565b600063ffffffff80831681811415613ac357613ac3613af0565b6001019392505050565b600063ffffffff80841680613ae457613ae4613b1f565b92169190910692915050565b7f4e487b7100000000000000000000000000000000000000000000000000000000600052601160045260246000fd5b7f4e487b7100000000000000000000000000000000000000000000000000000000600052601260045260246000fd5b63ffffffff8116811461313157600080fdfea2646970667358221220a7c90fb59d65245960d2049ab445e30c6b79ad189b300dd10ff38d6cff22c9a864736f6c63430008040033",
  "linkReferences": {},
  "deployedLinkReferences": {}
}