{
  "_format": "hh-sol-artifact-1",
  "contractName": "PancakeSwapLottery",
  "sourceName": "contracts/PancakeSwapLottery.sol",
  "abi": [
    {
      "inputs": [
        {
          "internalType": "address",
          "name": "_cakeTokenAddress",
          "type": "address"
        },
        {
          "internalType": "address",
          "name": "_randomGeneratorAddress",
          "type": "address"
        }
      ],
      "stateMutability": "nonpayable",
      "type": "constructor"
    },
    {
      "anonymous": false,
      "inputs": [
        {
          "indexed": false,
          "internalType": "address",
          "name": "token",
          "type": "address"
        },
        {
          "indexed": false,
          "internalType": "uint256",
          "name": "amount",
          "type": "uint256"
        }
      ],
      "name": "AdminTokenRecovery",
      "type": "event"
    },
    {
      "anonymous": false,
      "inputs": [
        {
          "indexed": true,
          "internalType": "uint256",
          "name": "lotteryId",
          "type": "uint256"
        }
      ],
      "name": "LotteryClose",
      "type": "event"
    },
    {
      "anonymous": false,
      "inputs": [
        {
          "indexed": true,
          "internalType": "uint256",
          "name": "lotteryId",
          "type": "uint256"
        },
        {
          "indexed": false,
          "internalType": "uint256",
          "name": "injectedAmount",
          "type": "uint256"
        }
      ],
      "name": "LotteryInjection",
      "type": "event"
    },
    {
      "anonymous": false,
      "inputs": [
        {
          "indexed": true,
          "internalType": "uint256",
          "name": "lotteryId",
          "type": "uint256"
        },
        {
          "indexed": false,
          "internalType": "uint256",
          "name": "finalNumber",
          "type": "uint256"
        },
        {
          "indexed": false,
          "internalType": "uint256",
          "name": "countWinningTickets",
          "type": "uint256"
        }
      ],
      "name": "LotteryNumberDrawn",
      "type": "event"
    },
    {
      "anonymous": false,
      "inputs": [
        {
          "indexed": true,
          "internalType": "uint256",
          "name": "lotteryId",
          "type": "uint256"
        },
        {
          "indexed": false,
          "internalType": "uint256",
          "name": "startTime",
          "type": "uint256"
        },
        {
          "indexed": false,
          "internalType": "uint256",
          "name": "endTime",
          "type": "uint256"
        },
        {
          "indexed": false,
          "internalType": "uint256",
          "name": "priceTicketInCake",
          "type": "uint256"
        },
        {
          "indexed": false,
          "internalType": "uint256",
          "name": "firstTicketId",
          "type": "uint256"
        },
        {
          "indexed": false,
          "internalType": "uint256",
          "name": "injectedAmount",
          "type": "uint256"
        }
      ],
      "name": "LotteryOpen",
      "type": "event"
    },
    {
      "anonymous": false,
      "inputs": [
        {
          "indexed": false,
          "internalType": "address",
          "name": "operator",
          "type": "address"
        },
        {
          "indexed": false,
          "internalType": "address",
          "name": "treasury",
          "type": "address"
        },
        {
          "indexed": false,
          "internalType": "address",
          "name": "injector",
          "type": "address"
        },
        {
          "indexed": false,
          "internalType": "address",
          "name": "NFT",
          "type": "address"
        }
      ],
      "name": "NewOperatorAndTreasuryAndInjectorAddresses",
      "type": "event"
    },
    {
      "anonymous": false,
      "inputs": [
        {
          "indexed": true,
          "internalType": "address",
          "name": "randomGenerator",
          "type": "address"
        }
      ],
      "name": "NewRandomGenerator",
      "type": "event"
    },
    {
      "anonymous": false,
      "inputs": [
        {
          "indexed": false,
          "internalType": "uint256",
          "name": "tokenId",
          "type": "uint256"
        }
      ],
      "name": "NewTokenId",
      "type": "event"
    },
    {
      "anonymous": false,
      "inputs": [
        {
          "indexed": true,
          "internalType": "address",
          "name": "previousOwner",
          "type": "address"
        },
        {
          "indexed": true,
          "internalType": "address",
          "name": "newOwner",
          "type": "address"
        }
      ],
      "name": "OwnershipTransferred",
      "type": "event"
    },
    {
      "anonymous": false,
      "inputs": [
        {
          "indexed": true,
          "internalType": "address",
          "name": "claimer",
          "type": "address"
        },
        {
          "indexed": false,
          "internalType": "uint256",
          "name": "amount",
          "type": "uint256"
        },
        {
          "indexed": true,
          "internalType": "uint256",
          "name": "lotteryId",
          "type": "uint256"
        },
        {
          "indexed": false,
          "internalType": "uint256",
          "name": "numberTickets",
          "type": "uint256"
        }
      ],
      "name": "TicketsClaim",
      "type": "event"
    },
    {
      "anonymous": false,
      "inputs": [
        {
          "indexed": true,
          "internalType": "address",
          "name": "buyer",
          "type": "address"
        },
        {
          "indexed": true,
          "internalType": "uint256",
          "name": "lotteryId",
          "type": "uint256"
        },
        {
          "indexed": false,
          "internalType": "uint256",
          "name": "numberTickets",
          "type": "uint256"
        }
      ],
      "name": "TicketsPurchase",
      "type": "event"
    },
    {
      "inputs": [],
      "name": "MAX_LENGTH_LOTTERY",
      "outputs": [
        {
          "internalType": "uint256",
          "name": "",
          "type": "uint256"
        }
      ],
      "stateMutability": "view",
      "type": "function"
    },
    {
      "inputs": [],
      "name": "MIN_DISCOUNT_DIVISOR",
      "outputs": [
        {
          "internalType": "uint256",
          "name": "",
          "type": "uint256"
        }
      ],
      "stateMutability": "view",
      "type": "function"
    },
    {
      "inputs": [],
      "name": "MIN_LENGTH_LOTTERY",
      "outputs": [
        {
          "internalType": "uint256",
          "name": "",
          "type": "uint256"
        }
      ],
      "stateMutability": "view",
      "type": "function"
    },
    {
      "inputs": [],
      "name": "NFTAddress",
      "outputs": [
        {
          "internalType": "address",
          "name": "",
          "type": "address"
        }
      ],
      "stateMutability": "view",
      "type": "function"
    },
    {
      "inputs": [
        {
          "internalType": "uint256",
          "name": "_lotteryId",
          "type": "uint256"
        },
        {
          "internalType": "uint256",
          "name": "_numberOfTickets",
          "type": "uint256"
        }
      ],
      "name": "buyTickets",
      "outputs": [],
      "stateMutability": "nonpayable",
      "type": "function"
    },
    {
      "inputs": [],
      "name": "cakeToken",
      "outputs": [
        {
          "internalType": "contract IERC20",
          "name": "",
          "type": "address"
        }
      ],
      "stateMutability": "view",
      "type": "function"
    },
    {
      "inputs": [
        {
          "internalType": "uint256",
          "name": "_discountDivisor",
          "type": "uint256"
        },
        {
          "internalType": "uint256",
          "name": "_priceTicket",
          "type": "uint256"
        },
        {
          "internalType": "uint256",
          "name": "_numberTickets",
          "type": "uint256"
        }
      ],
      "name": "calculateTotalPriceForBulkTickets",
      "outputs": [
        {
          "internalType": "uint256",
          "name": "",
          "type": "uint256"
        }
      ],
      "stateMutability": "pure",
      "type": "function"
    },
    {
      "inputs": [
        {
          "internalType": "address",
          "name": "_randomGeneratorAddress",
          "type": "address"
        }
      ],
      "name": "changeRandomGenerator",
      "outputs": [],
      "stateMutability": "nonpayable",
      "type": "function"
    },
    {
      "inputs": [
        {
          "internalType": "uint256",
          "name": "_lotteryId",
          "type": "uint256"
        },
        {
          "internalType": "uint256[]",
          "name": "_ticketIds",
          "type": "uint256[]"
        }
      ],
      "name": "claimTickets",
      "outputs": [],
      "stateMutability": "nonpayable",
      "type": "function"
    },
    {
      "inputs": [
        {
          "internalType": "uint256",
          "name": "_lotteryId",
          "type": "uint256"
        }
      ],
      "name": "closeLottery",
      "outputs": [],
      "stateMutability": "nonpayable",
      "type": "function"
    },
    {
      "inputs": [],
      "name": "currentLotteryId",
      "outputs": [
        {
          "internalType": "uint256",
          "name": "",
          "type": "uint256"
        }
      ],
      "stateMutability": "view",
      "type": "function"
    },
    {
      "inputs": [],
      "name": "currentTicketId",
      "outputs": [
        {
          "internalType": "uint32",
          "name": "",
          "type": "uint32"
        }
      ],
      "stateMutability": "view",
      "type": "function"
    },
    {
      "inputs": [
        {
          "internalType": "uint256",
          "name": "_lotteryId",
          "type": "uint256"
        }
      ],
      "name": "drawFinalNumberAndMakeLotteryClaimable",
      "outputs": [],
      "stateMutability": "nonpayable",
      "type": "function"
    },
    {
      "inputs": [
        {
          "internalType": "uint256",
          "name": "_lotteryId",
          "type": "uint256"
        },
        {
          "internalType": "uint256",
          "name": "_amount",
          "type": "uint256"
        }
      ],
      "name": "injectFunds",
      "outputs": [],
      "stateMutability": "nonpayable",
      "type": "function"
    },
    {
      "inputs": [],
      "name": "injectorAddress",
      "outputs": [
        {
          "internalType": "address",
          "name": "",
          "type": "address"
        }
      ],
      "stateMutability": "view",
      "type": "function"
    },
    {
      "inputs": [],
      "name": "maxNumberTicketsPerBuyOrClaim",
      "outputs": [
        {
          "internalType": "uint256",
          "name": "",
          "type": "uint256"
        }
      ],
      "stateMutability": "view",
      "type": "function"
    },
    {
      "inputs": [],
      "name": "maxPriceTicketInCake",
      "outputs": [
        {
          "internalType": "uint256",
          "name": "",
          "type": "uint256"
        }
      ],
      "stateMutability": "view",
      "type": "function"
    },
    {
      "inputs": [],
      "name": "minPriceTicketInCake",
      "outputs": [
        {
          "internalType": "uint256",
          "name": "",
          "type": "uint256"
        }
      ],
      "stateMutability": "view",
      "type": "function"
    },
    {
      "inputs": [],
      "name": "operatorAddress",
      "outputs": [
        {
          "internalType": "address",
          "name": "",
          "type": "address"
        }
      ],
      "stateMutability": "view",
      "type": "function"
    },
    {
      "inputs": [],
      "name": "owner",
      "outputs": [
        {
          "internalType": "address",
          "name": "",
          "type": "address"
        }
      ],
      "stateMutability": "view",
      "type": "function"
    },
    {
      "inputs": [],
      "name": "pendingInjectionNextLottery",
      "outputs": [
        {
          "internalType": "uint256",
          "name": "",
          "type": "uint256"
        }
      ],
      "stateMutability": "view",
      "type": "function"
    },
    {
      "inputs": [],
      "name": "randomGenerator",
      "outputs": [
        {
          "internalType": "contract IRandomNumberGenerator",
          "name": "",
          "type": "address"
        }
      ],
      "stateMutability": "view",
      "type": "function"
    },
    {
      "inputs": [
        {
          "internalType": "address",
          "name": "_tokenAddress",
          "type": "address"
        },
        {
          "internalType": "uint256",
          "name": "_tokenAmount",
          "type": "uint256"
        }
      ],
      "name": "recoverWrongTokens",
      "outputs": [],
      "stateMutability": "nonpayable",
      "type": "function"
    },
    {
      "inputs": [],
      "name": "renounceOwnership",
      "outputs": [],
      "stateMutability": "nonpayable",
      "type": "function"
    },
    {
      "inputs": [
        {
          "internalType": "uint256",
          "name": "_maxNumberTicketsPerBuy",
          "type": "uint256"
        }
      ],
      "name": "setMaxNumberTicketsPerBuy",
      "outputs": [],
      "stateMutability": "nonpayable",
      "type": "function"
    },
    {
      "inputs": [
        {
          "internalType": "uint256",
          "name": "_minPriceTicketInCake",
          "type": "uint256"
        },
        {
          "internalType": "uint256",
          "name": "_maxPriceTicketInCake",
          "type": "uint256"
        }
      ],
      "name": "setMinAndMaxTicketPriceInCake",
      "outputs": [],
      "stateMutability": "nonpayable",
      "type": "function"
    },
    {
      "inputs": [
        {
          "internalType": "address",
          "name": "_operatorAddress",
          "type": "address"
        },
        {
          "internalType": "address",
          "name": "_treasuryAddress",
          "type": "address"
        },
        {
          "internalType": "address",
          "name": "_injectorAddress",
          "type": "address"
        },
        {
          "internalType": "address",
          "name": "_NFTAddress",
          "type": "address"
        }
      ],
      "name": "setOperatorAndTreasuryAndInjectorAndNFTAddresses",
      "outputs": [],
      "stateMutability": "nonpayable",
      "type": "function"
    },
    {
      "inputs": [
        {
          "internalType": "uint256",
          "name": "_tokenId",
          "type": "uint256"
        }
      ],
      "name": "setTokenId",
      "outputs": [],
      "stateMutability": "nonpayable",
      "type": "function"
    },
    {
      "inputs": [
        {
          "internalType": "uint256",
          "name": "_endTime",
          "type": "uint256"
        },
        {
          "internalType": "uint256",
          "name": "_priceTicketInCake",
          "type": "uint256"
        },
        {
          "internalType": "uint256",
          "name": "_discountDivisor",
          "type": "uint256"
        },
        {
          "internalType": "uint256",
          "name": "_tokenId",
          "type": "uint256"
        }
      ],
      "name": "startLottery",
      "outputs": [],
      "stateMutability": "nonpayable",
      "type": "function"
    },
    {
      "inputs": [
        {
          "internalType": "address",
          "name": "newOwner",
          "type": "address"
        }
      ],
      "name": "transferOwnership",
      "outputs": [],
      "stateMutability": "nonpayable",
      "type": "function"
    },
    {
      "inputs": [],
      "name": "treasuryAddress",
      "outputs": [
        {
          "internalType": "address",
          "name": "",
          "type": "address"
        }
      ],
      "stateMutability": "view",
      "type": "function"
    },
    {
      "inputs": [],
      "name": "viewCurrentLotteryId",
      "outputs": [
        {
          "internalType": "uint256",
          "name": "",
          "type": "uint256"
        }
      ],
      "stateMutability": "view",
      "type": "function"
    },
    {
      "inputs": [
        {
          "internalType": "uint256",
          "name": "_lotteryId",
          "type": "uint256"
        }
      ],
      "name": "viewLottery",
      "outputs": [
        {
          "components": [
            {
              "internalType": "enum PancakeSwapLottery.Status",
              "name": "status",
              "type": "uint8"
            },
            {
              "internalType": "uint256",
              "name": "startTime",
              "type": "uint256"
            },
            {
              "internalType": "uint256",
              "name": "endTime",
              "type": "uint256"
            },
            {
              "internalType": "uint256",
              "name": "priceTicketInCake",
              "type": "uint256"
            },
            {
              "internalType": "uint256",
              "name": "discountDivisor",
              "type": "uint256"
            },
            {
              "internalType": "uint256",
              "name": "firstTicketId",
              "type": "uint256"
            },
            {
              "internalType": "uint256",
              "name": "amountCollectedInCake",
              "type": "uint256"
            },
            {
              "internalType": "uint32",
              "name": "finalNumber",
              "type": "uint32"
            },
            {
              "internalType": "uint256",
              "name": "tokenId",
              "type": "uint256"
            }
          ],
          "internalType": "struct PancakeSwapLottery.Lottery",
          "name": "",
          "type": "tuple"
        }
      ],
      "stateMutability": "view",
      "type": "function"
    },
    {
      "inputs": [
        {
          "internalType": "uint256[]",
          "name": "_ticketIds",
          "type": "uint256[]"
        }
      ],
      "name": "viewStatusesForTicketIds",
      "outputs": [
        {
          "internalType": "bool[]",
          "name": "",
          "type": "bool[]"
        }
      ],
      "stateMutability": "view",
      "type": "function"
    },
    {
      "inputs": [
        {
          "internalType": "address",
          "name": "_user",
          "type": "address"
        },
        {
          "internalType": "uint256",
          "name": "_lotteryId",
          "type": "uint256"
        },
        {
          "internalType": "uint256",
          "name": "_cursor",
          "type": "uint256"
        },
        {
          "internalType": "uint256",
          "name": "_size",
          "type": "uint256"
        }
      ],
      "name": "viewUserInfoForLotteryId",
      "outputs": [
        {
          "internalType": "uint256[]",
          "name": "",
          "type": "uint256[]"
        },
        {
          "internalType": "bool[]",
          "name": "",
          "type": "bool[]"
        },
        {
          "internalType": "uint256",
          "name": "",
          "type": "uint256"
        }
      ],
      "stateMutability": "view",
      "type": "function"
    }
  ],
  "bytecode": "0x608060405260646008556802b5e3af16b18800006009556611c37937e08000600a553480156200002e57600080fd5b5060405162003da238038062003da2833981016040819052620000519162000102565b6001600055620000613362000093565b600c80546001600160a01b039384166001600160a01b031991821617909155600d805492909316911617905562000139565b600180546001600160a01b038381166001600160a01b0319831681179093556040519116919082907f8be0079c531659141344cd1fd0a4f28419497f9722a3daafe3b4186f6b6457e090600090a35050565b80516001600160a01b0381168114620000fd57600080fd5b919050565b6000806040838503121562000115578182fd5b6200012083620000e5565b91506200013060208401620000e5565b90509250929050565b613c5980620001496000396000f3fe608060405234801561001057600080fd5b50600436106102415760003560e01c8063715018a611610145578063c4937ab9116100bd578063db19da0d1161008c578063e49eb0da11610071578063e49eb0da1461050a578063edd19b5d1461051d578063f2fde38b1461053057600080fd5b8063db19da0d146104e0578063dcbad90d146104ea57600080fd5b8063c4937ab914610487578063c5f956af1461049a578063c929ccf3146104ba578063da7429f8146104cd57600080fd5b80638904bf2f1161011457806398359fa1116100f957806398359fa1146104415780639c384653146104545780639d8ca5311461047457600080fd5b80638904bf2f146104035780638da5cb5b1461042357600080fd5b8063715018a6146103e05780637cb583bd1461027157806380a06160146103e85780638627df46146103f057600080fd5b8063249167fc116101d8578063471aeab4116101a757806369b9d03e1161018c57806369b9d03e146103b15780636b873788146103c45780636be4097c146103d757600080fd5b8063471aeab414610379578063686465b81461038c57600080fd5b8063249167fc14610328578063310c87cc1461033d57806331feb5651461035d5780633f138d4b1461036657600080fd5b80631d23e0e4116102145780631d23e0e4146102d65780631f73664b146102f65780631fe86c6b146102ff5780632423807a1461030857600080fd5b806305531eeb1461024657806307fb5a9c14610271578063127effb21461028857806312a9769d146102cd575b600080fd5b610259610254366004613725565b610543565b60405161026893929190613943565b60405180910390f35b61027a61012c81565b604051908152602001610268565b6003546102a89073ffffffffffffffffffffffffffffffffffffffff1681565b60405173ffffffffffffffffffffffffffffffffffffffff9091168152602001610268565b61027a600b5481565b6102e96102e436600461375d565b61089c565b6040516102689190613930565b61027a60095481565b61027a60085481565b61031b6103163660046137bd565b610a43565b60405161026891906139f3565b61033b6103363660046136a9565b610b8b565b005b6005546102a89073ffffffffffffffffffffffffffffffffffffffff1681565b61027a600a5481565b61033b6103743660046136fc565b610e4c565b61033b610387366004613837565b610f4d565b60075461039c9063ffffffff1681565b60405163ffffffff9091168152602001610268565b61033b6103bf366004613883565b611127565b61033b6103d23660046137bd565b611736565b61027a60065481565b61033b6117aa565b60065461027a565b61033b6103fe366004613837565b6117be565b600c546102a89073ffffffffffffffffffffffffffffffffffffffff1681565b60015473ffffffffffffffffffffffffffffffffffffffff166102a8565b61033b61044f36600461368f565b611c9e565b6002546102a89073ffffffffffffffffffffffffffffffffffffffff1681565b61033b6104823660046137bd565b611f59565b61027a610495366004613858565b6122e5565b6004546102a89073ffffffffffffffffffffffffffffffffffffffff1681565b61033b6104c83660046137bd565b6123cf565b61033b6104db366004613837565b61263d565b61027a6205472c81565b600d546102a89073ffffffffffffffffffffffffffffffffffffffff1681565b61033b6105183660046137ed565b6126ba565b61033b61052b3660046137bd565b612c3b565b61033b61053e36600461368f565b61308b565b73ffffffffffffffffffffffffffffffffffffffff84166000908152601060209081526040808320868452909152812054606091829184906105858782613b02565b821115610599576105968782613b02565b91505b60008267ffffffffffffffff8111156105db577f4e487b7100000000000000000000000000000000000000000000000000000000600052604160045260246000fd5b604051908082528060200260200182016040528015610604578160200160208202803683370190505b50905060008367ffffffffffffffff811115610649577f4e487b7100000000000000000000000000000000000000000000000000000000600052604160045260246000fd5b604051908082528060200260200182016040528015610672578160200160208202803683370190505b50905060005b8481101561087b5773ffffffffffffffffffffffffffffffffffffffff8c1660009081526010602090815260408083208e845290915290206106ba8b83613a99565b815481106106f1577f4e487b7100000000000000000000000000000000000000000000000000000000600052603260045260246000fd5b9060005260206000200154838281518110610735577f4e487b7100000000000000000000000000000000000000000000000000000000600052603260045260246000fd5b602002602001018181525050600073ffffffffffffffffffffffffffffffffffffffff16600f6000858481518110610796577f4e487b7100000000000000000000000000000000000000000000000000000000600052603260045260246000fd5b60209081029190910181015182528101919091526040016000205473ffffffffffffffffffffffffffffffffffffffff16141561081d576001828281518110610808577f4e487b7100000000000000000000000000000000000000000000000000000000600052603260045260246000fd5b91151560209283029190910190910152610869565b6000828281518110610858577f4e487b7100000000000000000000000000000000000000000000000000000000600052603260045260246000fd5b911515602092830291909101909101525b8061087381613b45565b915050610678565b508181610888868c613a99565b965096509650505050509450945094915050565b60608160008167ffffffffffffffff8111156108e1577f4e487b7100000000000000000000000000000000000000000000000000000000600052604160045260246000fd5b60405190808252806020026020018201604052801561090a578160200160208202803683370190505b50905060005b82811015610a3a576000600f81888885818110610956577f4e487b7100000000000000000000000000000000000000000000000000000000600052603260045260246000fd5b602090810292909201358352508101919091526040016000205473ffffffffffffffffffffffffffffffffffffffff1614156109dc5760018282815181106109c7577f4e487b7100000000000000000000000000000000000000000000000000000000600052603260045260246000fd5b91151560209283029190910190910152610a28565b6000828281518110610a17577f4e487b7100000000000000000000000000000000000000000000000000000000600052603260045260246000fd5b911515602092830291909101909101525b80610a3281613b45565b915050610910565b50949350505050565b610a996040805161012081019091528060008152602001600081526020016000815260200160008152602001600081526020016000815260200160008152602001600063ffffffff168152602001600081525090565b6000828152600e602052604090819020815161012081019092528054829060ff166003811115610af2577f4e487b7100000000000000000000000000000000000000000000000000000000600052602160045260246000fd5b6003811115610b2a577f4e487b7100000000000000000000000000000000000000000000000000000000600052602160045260246000fd5b815260018201546020820152600282015460408201526003820154606082015260048201546080820152600582015460a0820152600682015460c0820152600782015463ffffffff1660e08201526008909101546101009091015292915050565b610b93613142565b73ffffffffffffffffffffffffffffffffffffffff8416610c15576040517f08c379a000000000000000000000000000000000000000000000000000000000815260206004820152601660248201527f43616e6e6f74206265207a65726f20616464726573730000000000000000000060448201526064015b60405180910390fd5b73ffffffffffffffffffffffffffffffffffffffff8316610c92576040517f08c379a000000000000000000000000000000000000000000000000000000000815260206004820152601660248201527f43616e6e6f74206265207a65726f2061646472657373000000000000000000006044820152606401610c0c565b73ffffffffffffffffffffffffffffffffffffffff8216610d0f576040517f08c379a000000000000000000000000000000000000000000000000000000000815260206004820152601660248201527f43616e6e6f74206265207a65726f2061646472657373000000000000000000006044820152606401610c0c565b73ffffffffffffffffffffffffffffffffffffffff8116610d8c576040517f08c379a000000000000000000000000000000000000000000000000000000000815260206004820152601660248201527f43616e6e6f74206265207a65726f2061646472657373000000000000000000006044820152606401610c0c565b6003805473ffffffffffffffffffffffffffffffffffffffff8681167fffffffffffffffffffffffff000000000000000000000000000000000000000092831681179093556004805487831690841681179091556002805487841690851681179091556005805493871693909416831790935560408051948552602085019190915283019190915260608201527ffaa5a6d898018caa25925a386a8fbac436351bde8b2aa41e5e59d05138e721b09060800160405180910390a150505050565b610e54613142565b600c5473ffffffffffffffffffffffffffffffffffffffff83811691161415610ed9576040517f08c379a000000000000000000000000000000000000000000000000000000000815260206004820152601460248201527f43616e6e6f742062652043414b4520746f6b656e0000000000000000000000006044820152606401610c0c565b610efa73ffffffffffffffffffffffffffffffffffffffff831633836131c3565b6040805173ffffffffffffffffffffffffffffffffffffffff84168152602081018390527f74545154aac348a3eac92596bd1971957ca94795f4e954ec5f613b55fab78129910160405180910390a15050565b60015473ffffffffffffffffffffffffffffffffffffffff16331480610f8a575060025473ffffffffffffffffffffffffffffffffffffffff1633145b610ff0576040517f08c379a000000000000000000000000000000000000000000000000000000000815260206004820152601560248201527f4e6f74206f776e6572206f7220696e6a6563746f7200000000000000000000006044820152606401610c0c565b60016000838152600e602052604090205460ff16600381111561103c577f4e487b7100000000000000000000000000000000000000000000000000000000600052602160045260246000fd5b146110a3576040517f08c379a000000000000000000000000000000000000000000000000000000000815260206004820152601060248201527f4c6f7474657279206e6f74206f70656e000000000000000000000000000000006044820152606401610c0c565b600c546110c89073ffffffffffffffffffffffffffffffffffffffff1633308461329c565b6000828152600e6020526040812060060180548392906110e9908490613a99565b909155505060405181815282907f1bbd659dd628a25f7ff2eabb69c74a56939c539728282275c1c9c1a2d3e340499060200160405180910390a25050565b60035473ffffffffffffffffffffffffffffffffffffffff1633146111a8576040517f08c379a000000000000000000000000000000000000000000000000000000000815260206004820152600c60248201527f4e6f74206f70657261746f7200000000000000000000000000000000000000006044820152606401610c0c565b6005546040517f70a0823100000000000000000000000000000000000000000000000000000000815230600482015260009173ffffffffffffffffffffffffffffffffffffffff16906370a082319060240160206040518083038186803b15801561121257600080fd5b505afa158015611226573d6000803e3d6000fd5b505050506040513d601f19601f8201168201806040525081019061124a91906137d5565b116112b1576040517f08c379a000000000000000000000000000000000000000000000000000000000815260206004820152601560248201527f5072697a65204e4654206e6f742070726573656e7400000000000000000000006044820152606401610c0c565b60008111611341576040517f08c379a000000000000000000000000000000000000000000000000000000000815260206004820152602160248201527f546f6b656e4964206d7573742062652067726561746572207468616e207a657260448201527f6f000000000000000000000000000000000000000000000000000000000000006064820152608401610c0c565b600654158061139c575060036006546000908152600e602052604090205460ff16600381111561139a577f4e487b7100000000000000000000000000000000000000000000000000000000600052602160045260246000fd5b145b611402576040517f08c379a000000000000000000000000000000000000000000000000000000000815260206004820152601960248201527f4e6f742074696d6520746f207374617274206c6f7474657279000000000000006044820152606401610c0c565b61012c61140f4286613b02565b11801561142757506205472c6114254286613b02565b105b61148d576040517f08c379a000000000000000000000000000000000000000000000000000000000815260206004820152601f60248201527f4c6f7474657279206c656e677468206f757473696465206f662072616e6765006044820152606401610c0c565b600a5483101580156114a157506009548311155b611507576040517f08c379a000000000000000000000000000000000000000000000000000000000815260206004820152601160248201527f4f757473696465206f66206c696d6974730000000000000000000000000000006044820152606401610c0c565b61012c821015611573576040517f08c379a000000000000000000000000000000000000000000000000000000000815260206004820152601860248201527f446973636f756e742064697669736f7220746f6f206c6f7700000000000000006044820152606401610c0c565b6006805490600061158383613b45565b909155505060408051610120810190915280600181524260208083019190915260408083018890526060830187905260808301869052600060a08401819052600b5460c085015260e084018190526101009093018590526006548352600e90915290208151815482907fffffffffffffffffffffffffffffffffffffffffffffffffffffffffffffff00166001836003811115611649577f4e487b7100000000000000000000000000000000000000000000000000000000600052602160045260246000fd5b0217905550602082810151600183015560408084015160028401556060808501516003850155608080860151600486015560a080870151600587015560c087015160068088019190915560e0880151600780890180547fffffffffffffffffffffffffffffffffffffffffffffffffffffffff000000001663ffffffff93841617905561010090990151600890980197909755549654600b5485514281529687018d90529486018b9052909516918401919091528201527f367e70f8c0e0c0a6504d92172bda155c02022d532fc85b5d66a9c49e31c8bc77910160405180910390a250506000600b555050565b61173e613142565b806117a5576040517f08c379a000000000000000000000000000000000000000000000000000000000815260206004820152600b60248201527f4d757374206265203e20300000000000000000000000000000000000000000006044820152606401610c0c565b600855565b6117b2613142565b6117bc6000613300565b565b333b15611827576040517f08c379a000000000000000000000000000000000000000000000000000000000815260206004820152601460248201527f436f6e7472616374206e6f7420616c6c6f7765640000000000000000000000006044820152606401610c0c565b333214611890576040517f08c379a000000000000000000000000000000000000000000000000000000000815260206004820152601a60248201527f50726f787920636f6e7472616374206e6f7420616c6c6f7765640000000000006044820152606401610c0c565b600260005414156118fd576040517f08c379a000000000000000000000000000000000000000000000000000000000815260206004820152601f60248201527f5265656e7472616e637947756172643a207265656e7472616e742063616c6c006044820152606401610c0c565b600260005580611969576040517f08c379a000000000000000000000000000000000000000000000000000000000815260206004820152601e60248201527f596f75206d75737420627574206174206c656173742031207469636b657400006044820152606401610c0c565b6008548111156119d5576040517f08c379a000000000000000000000000000000000000000000000000000000000815260206004820152601060248201527f546f6f206d616e79207469636b657473000000000000000000000000000000006044820152606401610c0c565b60016000838152600e602052604090205460ff166003811115611a21577f4e487b7100000000000000000000000000000000000000000000000000000000600052602160045260246000fd5b14611a88576040517f08c379a000000000000000000000000000000000000000000000000000000000815260206004820152601360248201527f4c6f7474657279206973206e6f74206f70656e000000000000000000000000006044820152606401610c0c565b6000828152600e60205260409020600201544210611b02576040517f08c379a000000000000000000000000000000000000000000000000000000000815260206004820152600f60248201527f4c6f7474657279206973206f76657200000000000000000000000000000000006044820152606401610c0c565b6000828152600e602052604081206004810154600390910154611b26919084613377565b600c54909150611b4e9073ffffffffffffffffffffffffffffffffffffffff1633308461329c565b6000838152600e602052604081206006018054839290611b6f908490613a99565b90915550600090505b828163ffffffff161015611c5c57336000818152601060209081526040808320888452825280832060078054825460018101845592865284862063ffffffff91821693019290925582518085018452958652805482168552600f909352908320935184547fffffffffffffffffffffffff00000000000000000000000000000000000000001673ffffffffffffffffffffffffffffffffffffffff9091161790935580549092169190611c2a83613b7e565b91906101000a81548163ffffffff021916908363ffffffff160217905550508080611c5490613b7e565b915050611b78565b50604051828152839033907fd7d247b583de1023852eef87b48f54354dbec771d01bc2cc49e96094efc322b99060200160405180910390a35050600160005550565b611ca6613142565b6006541580611d01575060036006546000908152600e602052604090205460ff166003811115611cff577f4e487b7100000000000000000000000000000000000000000000000000000000600052602160045260246000fd5b145b611d67576040517f08c379a000000000000000000000000000000000000000000000000000000000815260206004820152601860248201527f4c6f7474657279206e6f7420696e20636c61696d61626c6500000000000000006044820152606401610c0c565b60065460075460405173ffffffffffffffffffffffffffffffffffffffff84169263b37217a492611dd19263ffffffff9091169060200191825260e01b7fffffffff0000000000000000000000000000000000000000000000000000000016602082015260240190565b604080518083037fffffffffffffffffffffffffffffffffffffffffffffffffffffffffffffffe001815290829052805160209091012060e083901b7fffffffff000000000000000000000000000000000000000000000000000000001682526004820152602401600060405180830381600087803b158015611e5357600080fd5b505af1158015611e67573d6000803e3d6000fd5b505050508073ffffffffffffffffffffffffffffffffffffffff1663a1c4f55a6040518163ffffffff1660e01b815260040160206040518083038186803b158015611eb157600080fd5b505afa158015611ec5573d6000803e3d6000fd5b505050506040513d601f19601f82011682018060405250810190611ee991906138b4565b50600d80547fffffffffffffffffffffffff00000000000000000000000000000000000000001673ffffffffffffffffffffffffffffffffffffffff83169081179091556040517f383f8cb39dfa7c3fb901a460dd449ea924868f0a92ff03da64740fffa5f1de6290600090a250565b60035473ffffffffffffffffffffffffffffffffffffffff163314611fda576040517f08c379a000000000000000000000000000000000000000000000000000000000815260206004820152600c60248201527f4e6f74206f70657261746f7200000000000000000000000000000000000000006044820152606401610c0c565b60026000541415612047576040517f08c379a000000000000000000000000000000000000000000000000000000000815260206004820152601f60248201527f5265656e7472616e637947756172643a207265656e7472616e742063616c6c006044820152606401610c0c565b600260005560016000828152600e602052604090205460ff166003811115612098577f4e487b7100000000000000000000000000000000000000000000000000000000600052602160045260246000fd5b146120ff576040517f08c379a000000000000000000000000000000000000000000000000000000000815260206004820152601060248201527f4c6f7474657279206e6f74206f70656e000000000000000000000000000000006044820152606401610c0c565b6000818152600e60205260409020600201544211612179576040517f08c379a000000000000000000000000000000000000000000000000000000000815260206004820152601060248201527f4c6f7474657279206e6f74206f766572000000000000000000000000000000006044820152606401610c0c565b600d5460075460405173ffffffffffffffffffffffffffffffffffffffff9092169163b37217a4916121e491859163ffffffff169060200191825260e01b7fffffffff0000000000000000000000000000000000000000000000000000000016602082015260240190565b604080518083037fffffffffffffffffffffffffffffffffffffffffffffffffffffffffffffffe001815290829052805160209091012060e083901b7fffffffff000000000000000000000000000000000000000000000000000000001682526004820152602401600060405180830381600087803b15801561226657600080fd5b505af115801561227a573d6000803e3d6000fd5b5050506000828152600e602052604080822080547fffffffffffffffffffffffffffffffffffffffffffffffffffffffffffffff00166002179055518392507f8bc84e5d97533c428862626ac41fe7bc09b1ea2ed5e9e330d84092db8df153669190a2506001600055565b600061012c841015612353576040517f08c379a000000000000000000000000000000000000000000000000000000000815260206004820152601f60248201527f4d757374206265203e3d204d494e5f444953434f554e545f44495649534f52006044820152606401610c0c565b816123ba576040517f08c379a000000000000000000000000000000000000000000000000000000000815260206004820152601d60248201527f4e756d626572206f66207469636b657473206d757374206265203e20300000006044820152606401610c0c565b6123c5848484613377565b90505b9392505050565b60035473ffffffffffffffffffffffffffffffffffffffff163314612450576040517f08c379a000000000000000000000000000000000000000000000000000000000815260206004820152600c60248201527f4e6f74206f70657261746f7200000000000000000000000000000000000000006044820152606401610c0c565b6005546040517f70a0823100000000000000000000000000000000000000000000000000000000815230600482015260009173ffffffffffffffffffffffffffffffffffffffff16906370a082319060240160206040518083038186803b1580156124ba57600080fd5b505afa1580156124ce573d6000803e3d6000fd5b505050506040513d601f19601f820116820180604052508101906124f291906137d5565b11612559576040517f08c379a000000000000000000000000000000000000000000000000000000000815260206004820152601560248201527f5072697a65204e4654206e6f742070726573656e7400000000000000000000006044820152606401610c0c565b600081116125e9576040517f08c379a000000000000000000000000000000000000000000000000000000000815260206004820152602160248201527f746f6b656e4964206d7573742062652067726561746572207468616e207a657260448201527f6f000000000000000000000000000000000000000000000000000000000000006064820152608401610c0c565b6006546000908152600e602052604090819020600801829055517f8a1767404395cfcd1267c6537e872277dde277a29ac6dea742a111469f324a58906126329083815260200190565b60405180910390a150565b612645613142565b808211156126af576040517f08c379a000000000000000000000000000000000000000000000000000000000815260206004820152601b60248201527f6d696e5072696365206d757374206265203c206d6178507269636500000000006044820152606401610c0c565b600a91909155600955565b333b15612723576040517f08c379a000000000000000000000000000000000000000000000000000000000815260206004820152601460248201527f436f6e7472616374206e6f7420616c6c6f7765640000000000000000000000006044820152606401610c0c565b33321461278c576040517f08c379a000000000000000000000000000000000000000000000000000000000815260206004820152601a60248201527f50726f787920636f6e7472616374206e6f7420616c6c6f7765640000000000006044820152606401610c0c565b600260005414156127f9576040517f08c379a000000000000000000000000000000000000000000000000000000000815260206004820152601f60248201527f5265656e7472616e637947756172643a207265656e7472616e742063616c6c006044820152606401610c0c565b600260005580612865576040517f08c379a000000000000000000000000000000000000000000000000000000000815260206004820152601160248201527f4c656e677468206d757374206265203e300000000000000000000000000000006044820152606401610c0c565b6008548111156128d1576040517f08c379a000000000000000000000000000000000000000000000000000000000815260206004820152601060248201527f546f6f206d616e79207469636b657473000000000000000000000000000000006044820152606401610c0c565b60036000848152600e602052604090205460ff16600381111561291d577f4e487b7100000000000000000000000000000000000000000000000000000000600052602160045260246000fd5b14612984576040517f08c379a000000000000000000000000000000000000000000000000000000000815260206004820152601560248201527f4c6f7474657279206e6f7420636c61696d61626c6500000000000000000000006044820152606401610c0c565b6000838152600e602052604081206007015463ffffffff16815b83811015612bf15760008585838181106129e1577f4e487b7100000000000000000000000000000000000000000000000000000000600052603260045260246000fd5b90506020020135905080600e6000898152602001908152602001600020600501541115612a6a576040517f08c379a000000000000000000000000000000000000000000000000000000000815260206004820152601060248201527f5469636b6574496420746f6f206c6f77000000000000000000000000000000006044820152606401610c0c565b6000818152600f602052604090205473ffffffffffffffffffffffffffffffffffffffff163314612af7576040517f08c379a000000000000000000000000000000000000000000000000000000000815260206004820152600d60248201527f4e6f7420746865206f776e6572000000000000000000000000000000000000006044820152606401610c0c565b6000818152600f6020526040902080547fffffffffffffffffffffffff000000000000000000000000000000000000000016905563ffffffff8316811415612bde576005546000888152600e6020526040908190206008015490517f42842e0e000000000000000000000000000000000000000000000000000000008152306004820152336024820152604481019190915273ffffffffffffffffffffffffffffffffffffffff909116906342842e0e90606401600060405180830381600087803b158015612bc557600080fd5b505af1158015612bd9573d6000803e3d6000fd5b505050505b5080612be981613b45565b91505061299e565b506040805183815260208101859052869133917f0f5fca62da8fb5d95525b49e5eaa7b20bc6bd9e2f6b64b493442d1c0bd6ef486910160405180910390a350506001600055505050565b60035473ffffffffffffffffffffffffffffffffffffffff163314612cbc576040517f08c379a000000000000000000000000000000000000000000000000000000000815260206004820152600c60248201527f4e6f74206f70657261746f7200000000000000000000000000000000000000006044820152606401610c0c565b60026000541415612d29576040517f08c379a000000000000000000000000000000000000000000000000000000000815260206004820152601f60248201527f5265656e7472616e637947756172643a207265656e7472616e742063616c6c006044820152606401610c0c565b60026000818155828152600e602052604090205460ff166003811115612d78577f4e487b7100000000000000000000000000000000000000000000000000000000600052602160045260246000fd5b14612ddf576040517f08c379a000000000000000000000000000000000000000000000000000000000815260206004820152601160248201527f4c6f7474657279206e6f7420636c6f73650000000000000000000000000000006044820152606401610c0c565b600d60009054906101000a900473ffffffffffffffffffffffffffffffffffffffff1673ffffffffffffffffffffffffffffffffffffffff1663fbe5d9176040518163ffffffff1660e01b815260040160206040518083038186803b158015612e4757600080fd5b505afa158015612e5b573d6000803e3d6000fd5b505050506040513d601f19601f82011682018060405250810190612e7f91906137d5565b8114612ee7576040517f08c379a000000000000000000000000000000000000000000000000000000000815260206004820152601160248201527f4e756d62657273206e6f7420647261776e0000000000000000000000000000006044820152606401610c0c565b600754600d54604080517fa1c4f55a000000000000000000000000000000000000000000000000000000008152905160009363ffffffff169273ffffffffffffffffffffffffffffffffffffffff169163a1c4f55a916004808301926020929190829003018186803b158015612f5c57600080fd5b505afa158015612f70573d6000803e3d6000fd5b505050506040513d601f19601f82011682018060405250810190612f9491906138b4565b612f9e9190613ba2565b6000838152600e6020526040812060078101805463ffffffff85167fffffffffffffffffffffffffffffffffffffffffffffffffffffffff0000000090911617905580547fffffffffffffffffffffffffffffffffffffffffffffffffffffffffffffff0016600317815560060154600454600c549394509192909161303e9173ffffffffffffffffffffffffffffffffffffffff9081169116836131c3565b6006546040805163ffffffff86168152602081018590527f98e31a6607b8b15b4d5b91de54f4c09ffe4c4cf162aa532c70b5213754e2e703910160405180910390a2505060016000555050565b613093613142565b73ffffffffffffffffffffffffffffffffffffffff8116613136576040517f08c379a000000000000000000000000000000000000000000000000000000000815260206004820152602660248201527f4f776e61626c653a206e6577206f776e657220697320746865207a65726f206160448201527f64647265737300000000000000000000000000000000000000000000000000006064820152608401610c0c565b61313f81613300565b50565b60015473ffffffffffffffffffffffffffffffffffffffff1633146117bc576040517f08c379a000000000000000000000000000000000000000000000000000000000815260206004820181905260248201527f4f776e61626c653a2063616c6c6572206973206e6f7420746865206f776e65726044820152606401610c0c565b60405173ffffffffffffffffffffffffffffffffffffffff83166024820152604481018290526132979084907fa9059cbb00000000000000000000000000000000000000000000000000000000906064015b604080517fffffffffffffffffffffffffffffffffffffffffffffffffffffffffffffffe08184030181529190526020810180517bffffffffffffffffffffffffffffffffffffffffffffffffffffffff167fffffffff00000000000000000000000000000000000000000000000000000000909316929092179091526133ae565b505050565b60405173ffffffffffffffffffffffffffffffffffffffff808516602483015283166044820152606481018290526132fa9085907f23b872dd0000000000000000000000000000000000000000000000000000000090608401613215565b50505050565b6001805473ffffffffffffffffffffffffffffffffffffffff8381167fffffffffffffffffffffffff0000000000000000000000000000000000000000831681179093556040519116919082907f8be0079c531659141344cd1fd0a4f28419497f9722a3daafe3b4186f6b6457e090600090a35050565b60008382613386826001613a99565b6133909190613b02565b61339a8486613ac5565b6133a49190613ac5565b6123c59190613ab1565b6000613410826040518060400160405280602081526020017f5361666545524332303a206c6f772d6c6576656c2063616c6c206661696c65648152508573ffffffffffffffffffffffffffffffffffffffff166134ba9092919063ffffffff16565b805190915015613297578080602001905181019061342e919061379d565b613297576040517f08c379a000000000000000000000000000000000000000000000000000000000815260206004820152602a60248201527f5361666545524332303a204552433230206f7065726174696f6e20646964206e60448201527f6f742073756363656564000000000000000000000000000000000000000000006064820152608401610c0c565b60606123c584846000858573ffffffffffffffffffffffffffffffffffffffff85163b613543576040517f08c379a000000000000000000000000000000000000000000000000000000000815260206004820152601d60248201527f416464726573733a2063616c6c20746f206e6f6e2d636f6e74726163740000006044820152606401610c0c565b6000808673ffffffffffffffffffffffffffffffffffffffff16858760405161356c9190613914565b60006040518083038185875af1925050503d80600081146135a9576040519150601f19603f3d011682016040523d82523d6000602084013e6135ae565b606091505b50915091506135be8282866135c9565b979650505050505050565b606083156135d85750816123c8565b8251156135e85782518084602001fd5b816040517f08c379a0000000000000000000000000000000000000000000000000000000008152600401610c0c91906139a2565b803573ffffffffffffffffffffffffffffffffffffffff8116811461364057600080fd5b919050565b60008083601f840112613656578182fd5b50813567ffffffffffffffff81111561366d578182fd5b6020830191508360208260051b850101111561368857600080fd5b9250929050565b6000602082840312156136a0578081fd5b6123c88261361c565b600080600080608085870312156136be578283fd5b6136c78561361c565b93506136d56020860161361c565b92506136e36040860161361c565b91506136f16060860161361c565b905092959194509250565b6000806040838503121561370e578182fd5b6137178361361c565b946020939093013593505050565b6000806000806080858703121561373a578384fd5b6137438561361c565b966020860135965060408601359560600135945092505050565b6000806020838503121561376f578182fd5b823567ffffffffffffffff811115613785578283fd5b61379185828601613645565b90969095509350505050565b6000602082840312156137ae578081fd5b815180151581146123c8578182fd5b6000602082840312156137ce578081fd5b5035919050565b6000602082840312156137e6578081fd5b5051919050565b600080600060408486031215613801578283fd5b83359250602084013567ffffffffffffffff81111561381e578283fd5b61382a86828701613645565b9497909650939450505050565b60008060408385031215613849578182fd5b50508035926020909101359150565b60008060006060848603121561386c578283fd5b505081359360208301359350604090920135919050565b60008060008060808587031215613898578384fd5b5050823594602084013594506040840135936060013592509050565b6000602082840312156138c5578081fd5b815163ffffffff811681146123c8578182fd5b6000815180845260208085019450808401835b838110156139095781511515875295820195908201906001016138eb565b509495945050505050565b60008251613926818460208701613b19565b9190910192915050565b6020815260006123c860208301846138d8565b606080825284519082018190526000906020906080840190828801845b8281101561397c57815184529284019290840190600101613960565b5050508381038285015261399081876138d8565b92505050826040830152949350505050565b60208152600082518060208401526139c1816040850160208701613b19565b601f017fffffffffffffffffffffffffffffffffffffffffffffffffffffffffffffffe0169190910160400192915050565b815161012082019060048110613a32577f4e487b7100000000000000000000000000000000000000000000000000000000600052602160045260246000fd5b808352506020830151602083015260408301516040830152606083015160608301526080830151608083015260a083015160a083015260c083015160c083015260e0830151613a8960e084018263ffffffff169052565b5061010092830151919092015290565b60008219821115613aac57613aac613bc5565b500190565b600082613ac057613ac0613bf4565b500490565b6000817fffffffffffffffffffffffffffffffffffffffffffffffffffffffffffffffff0483118215151615613afd57613afd613bc5565b500290565b600082821015613b1457613b14613bc5565b500390565b60005b83811015613b34578181015183820152602001613b1c565b838111156132fa5750506000910152565b60007fffffffffffffffffffffffffffffffffffffffffffffffffffffffffffffffff821415613b7757613b77613bc5565b5060010190565b600063ffffffff80831681811415613b9857613b98613bc5565b6001019392505050565b600063ffffffff80841680613bb957613bb9613bf4565b92169190910692915050565b7f4e487b7100000000000000000000000000000000000000000000000000000000600052601160045260246000fd5b7f4e487b7100000000000000000000000000000000000000000000000000000000600052601260045260246000fdfea26469706673582212204f64f2e01c567ffc52fe8c41236188a472f6d35a471f20ebd608e557f0fd6a1864736f6c63430008040033",
  "linkReferences": {},
  "deployedLinkReferences": {}
}