{
  "_format": "hh-sol-artifact-1",
  "contractName": "PancakeSwapLottery",
  "sourceName": "contracts/PancakeSwapLottery.sol",
  "abi": [
    {
      "inputs": [
        {
          "internalType": "address",
          "name": "_cakeTokenAddress",
          "type": "address"
        },
        {
          "internalType": "address",
          "name": "_randomGeneratorAddress",
          "type": "address"
        }
      ],
      "stateMutability": "nonpayable",
      "type": "constructor"
    },
    {
      "anonymous": false,
      "inputs": [
        {
          "indexed": false,
          "internalType": "address",
          "name": "token",
          "type": "address"
        },
        {
          "indexed": false,
          "internalType": "uint256",
          "name": "amount",
          "type": "uint256"
        }
      ],
      "name": "AdminTokenRecovery",
      "type": "event"
    },
    {
      "anonymous": false,
      "inputs": [
        {
          "indexed": true,
          "internalType": "uint256",
          "name": "lotteryId",
          "type": "uint256"
        }
      ],
      "name": "LotteryClose",
      "type": "event"
    },
    {
      "anonymous": false,
      "inputs": [
        {
          "indexed": true,
          "internalType": "uint256",
          "name": "lotteryId",
          "type": "uint256"
        },
        {
          "indexed": false,
          "internalType": "uint256",
          "name": "injectedAmount",
          "type": "uint256"
        }
      ],
      "name": "LotteryInjection",
      "type": "event"
    },
    {
      "anonymous": false,
      "inputs": [
        {
          "indexed": true,
          "internalType": "uint256",
          "name": "lotteryId",
          "type": "uint256"
        },
        {
          "indexed": false,
          "internalType": "uint256",
          "name": "finalNumber",
          "type": "uint256"
        },
        {
          "indexed": false,
          "internalType": "uint256",
          "name": "countWinningTickets",
          "type": "uint256"
        }
      ],
      "name": "LotteryNumberDrawn",
      "type": "event"
    },
    {
      "anonymous": false,
      "inputs": [
        {
          "indexed": true,
          "internalType": "uint256",
          "name": "lotteryId",
          "type": "uint256"
        },
        {
          "indexed": false,
          "internalType": "uint256",
          "name": "startTime",
          "type": "uint256"
        },
        {
          "indexed": false,
          "internalType": "uint256",
          "name": "endTime",
          "type": "uint256"
        },
        {
          "indexed": false,
          "internalType": "uint256",
          "name": "priceTicketInCake",
          "type": "uint256"
        },
        {
          "indexed": false,
          "internalType": "uint256",
          "name": "firstTicketId",
          "type": "uint256"
        },
        {
          "indexed": false,
          "internalType": "uint256",
          "name": "injectedAmount",
          "type": "uint256"
        }
      ],
      "name": "LotteryOpen",
      "type": "event"
    },
    {
      "anonymous": false,
      "inputs": [
        {
          "indexed": false,
          "internalType": "address",
          "name": "operator",
          "type": "address"
        },
        {
          "indexed": false,
          "internalType": "address",
          "name": "treasury",
          "type": "address"
        },
        {
          "indexed": false,
          "internalType": "address",
          "name": "injector",
          "type": "address"
        },
        {
          "indexed": false,
          "internalType": "address",
          "name": "NFT",
          "type": "address"
        }
      ],
      "name": "NewOperatorAndTreasuryAndInjectorAddresses",
      "type": "event"
    },
    {
      "anonymous": false,
      "inputs": [
        {
          "indexed": true,
          "internalType": "address",
          "name": "randomGenerator",
          "type": "address"
        }
      ],
      "name": "NewRandomGenerator",
      "type": "event"
    },
    {
      "anonymous": false,
      "inputs": [
        {
          "indexed": false,
          "internalType": "uint256",
          "name": "tokenId",
          "type": "uint256"
        }
      ],
      "name": "NewTokenId",
      "type": "event"
    },
    {
      "anonymous": false,
      "inputs": [
        {
          "indexed": true,
          "internalType": "address",
          "name": "previousOwner",
          "type": "address"
        },
        {
          "indexed": true,
          "internalType": "address",
          "name": "newOwner",
          "type": "address"
        }
      ],
      "name": "OwnershipTransferred",
      "type": "event"
    },
    {
      "anonymous": false,
      "inputs": [
        {
          "indexed": true,
          "internalType": "address",
          "name": "claimer",
          "type": "address"
        },
        {
          "indexed": false,
          "internalType": "uint256",
          "name": "amount",
          "type": "uint256"
        },
        {
          "indexed": true,
          "internalType": "uint256",
          "name": "lotteryId",
          "type": "uint256"
        },
        {
          "indexed": false,
          "internalType": "uint256",
          "name": "numberTickets",
          "type": "uint256"
        }
      ],
      "name": "TicketsClaim",
      "type": "event"
    },
    {
      "anonymous": false,
      "inputs": [
        {
          "indexed": true,
          "internalType": "address",
          "name": "buyer",
          "type": "address"
        },
        {
          "indexed": true,
          "internalType": "uint256",
          "name": "lotteryId",
          "type": "uint256"
        },
        {
          "indexed": false,
          "internalType": "uint256",
          "name": "numberTickets",
          "type": "uint256"
        }
      ],
      "name": "TicketsPurchase",
      "type": "event"
    },
    {
      "inputs": [],
      "name": "MAX_LENGTH_LOTTERY",
      "outputs": [
        {
          "internalType": "uint256",
          "name": "",
          "type": "uint256"
        }
      ],
      "stateMutability": "view",
      "type": "function"
    },
    {
      "inputs": [],
      "name": "MIN_DISCOUNT_DIVISOR",
      "outputs": [
        {
          "internalType": "uint256",
          "name": "",
          "type": "uint256"
        }
      ],
      "stateMutability": "view",
      "type": "function"
    },
    {
      "inputs": [],
      "name": "MIN_LENGTH_LOTTERY",
      "outputs": [
        {
          "internalType": "uint256",
          "name": "",
          "type": "uint256"
        }
      ],
      "stateMutability": "view",
      "type": "function"
    },
    {
      "inputs": [],
      "name": "NFTAddress",
      "outputs": [
        {
          "internalType": "address",
          "name": "",
          "type": "address"
        }
      ],
      "stateMutability": "view",
      "type": "function"
    },
    {
      "inputs": [
        {
          "internalType": "uint256",
          "name": "_lotteryId",
          "type": "uint256"
        },
        {
          "internalType": "uint256",
          "name": "_numberOfTickets",
          "type": "uint256"
        }
      ],
      "name": "buyTickets",
      "outputs": [],
      "stateMutability": "nonpayable",
      "type": "function"
    },
    {
      "inputs": [],
      "name": "cakeToken",
      "outputs": [
        {
          "internalType": "contract IERC20",
          "name": "",
          "type": "address"
        }
      ],
      "stateMutability": "view",
      "type": "function"
    },
    {
      "inputs": [
        {
          "internalType": "uint256",
          "name": "_discountDivisor",
          "type": "uint256"
        },
        {
          "internalType": "uint256",
          "name": "_priceTicket",
          "type": "uint256"
        },
        {
          "internalType": "uint256",
          "name": "_numberTickets",
          "type": "uint256"
        }
      ],
      "name": "calculateTotalPriceForBulkTickets",
      "outputs": [
        {
          "internalType": "uint256",
          "name": "",
          "type": "uint256"
        }
      ],
      "stateMutability": "pure",
      "type": "function"
    },
    {
      "inputs": [
        {
          "internalType": "address",
          "name": "_randomGeneratorAddress",
          "type": "address"
        }
      ],
      "name": "changeRandomGenerator",
      "outputs": [],
      "stateMutability": "nonpayable",
      "type": "function"
    },
    {
      "inputs": [
        {
          "internalType": "uint256",
          "name": "_lotteryId",
          "type": "uint256"
        },
        {
          "internalType": "uint256[]",
          "name": "_ticketIds",
          "type": "uint256[]"
        }
      ],
      "name": "claimTickets",
      "outputs": [],
      "stateMutability": "nonpayable",
      "type": "function"
    },
    {
      "inputs": [
        {
          "internalType": "uint256",
          "name": "_lotteryId",
          "type": "uint256"
        }
      ],
      "name": "closeLottery",
      "outputs": [],
      "stateMutability": "nonpayable",
      "type": "function"
    },
    {
      "inputs": [],
      "name": "currentLotteryId",
      "outputs": [
        {
          "internalType": "uint256",
          "name": "",
          "type": "uint256"
        }
      ],
      "stateMutability": "view",
      "type": "function"
    },
    {
      "inputs": [],
      "name": "currentTicketId",
      "outputs": [
        {
          "internalType": "uint32",
          "name": "",
          "type": "uint32"
        }
      ],
      "stateMutability": "view",
      "type": "function"
    },
    {
      "inputs": [
        {
          "internalType": "uint256",
          "name": "_lotteryId",
          "type": "uint256"
        }
      ],
      "name": "drawFinalNumberAndMakeLotteryClaimable",
      "outputs": [],
      "stateMutability": "nonpayable",
      "type": "function"
    },
    {
      "inputs": [
        {
          "internalType": "uint256",
          "name": "_lotteryId",
          "type": "uint256"
        },
        {
          "internalType": "uint256",
          "name": "_amount",
          "type": "uint256"
        }
      ],
      "name": "injectFunds",
      "outputs": [],
      "stateMutability": "nonpayable",
      "type": "function"
    },
    {
      "inputs": [],
      "name": "injectorAddress",
      "outputs": [
        {
          "internalType": "address",
          "name": "",
          "type": "address"
        }
      ],
      "stateMutability": "view",
      "type": "function"
    },
    {
      "inputs": [],
      "name": "maxNumberTicketsPerBuyOrClaim",
      "outputs": [
        {
          "internalType": "uint256",
          "name": "",
          "type": "uint256"
        }
      ],
      "stateMutability": "view",
      "type": "function"
    },
    {
      "inputs": [],
      "name": "maxPriceTicketInCake",
      "outputs": [
        {
          "internalType": "uint256",
          "name": "",
          "type": "uint256"
        }
      ],
      "stateMutability": "view",
      "type": "function"
    },
    {
      "inputs": [],
      "name": "minPriceTicketInCake",
      "outputs": [
        {
          "internalType": "uint256",
          "name": "",
          "type": "uint256"
        }
      ],
      "stateMutability": "view",
      "type": "function"
    },
    {
      "inputs": [],
      "name": "operatorAddress",
      "outputs": [
        {
          "internalType": "address",
          "name": "",
          "type": "address"
        }
      ],
      "stateMutability": "view",
      "type": "function"
    },
    {
      "inputs": [],
      "name": "owner",
      "outputs": [
        {
          "internalType": "address",
          "name": "",
          "type": "address"
        }
      ],
      "stateMutability": "view",
      "type": "function"
    },
    {
      "inputs": [],
      "name": "pendingInjectionNextLottery",
      "outputs": [
        {
          "internalType": "uint256",
          "name": "",
          "type": "uint256"
        }
      ],
      "stateMutability": "view",
      "type": "function"
    },
    {
      "inputs": [],
      "name": "randomGenerator",
      "outputs": [
        {
          "internalType": "contract IRandomNumberGenerator",
          "name": "",
          "type": "address"
        }
      ],
      "stateMutability": "view",
      "type": "function"
    },
    {
      "inputs": [
        {
          "internalType": "address",
          "name": "_tokenAddress",
          "type": "address"
        },
        {
          "internalType": "uint256",
          "name": "_tokenAmount",
          "type": "uint256"
        }
      ],
      "name": "recoverWrongTokens",
      "outputs": [],
      "stateMutability": "nonpayable",
      "type": "function"
    },
    {
      "inputs": [],
      "name": "renounceOwnership",
      "outputs": [],
      "stateMutability": "nonpayable",
      "type": "function"
    },
    {
      "inputs": [
        {
          "internalType": "uint256",
          "name": "_maxNumberTicketsPerBuy",
          "type": "uint256"
        }
      ],
      "name": "setMaxNumberTicketsPerBuy",
      "outputs": [],
      "stateMutability": "nonpayable",
      "type": "function"
    },
    {
      "inputs": [
        {
          "internalType": "uint256",
          "name": "_minPriceTicketInCake",
          "type": "uint256"
        },
        {
          "internalType": "uint256",
          "name": "_maxPriceTicketInCake",
          "type": "uint256"
        }
      ],
      "name": "setMinAndMaxTicketPriceInCake",
      "outputs": [],
      "stateMutability": "nonpayable",
      "type": "function"
    },
    {
      "inputs": [
        {
          "internalType": "address",
          "name": "_operatorAddress",
          "type": "address"
        },
        {
          "internalType": "address",
          "name": "_treasuryAddress",
          "type": "address"
        },
        {
          "internalType": "address",
          "name": "_injectorAddress",
          "type": "address"
        },
        {
          "internalType": "address",
          "name": "_NFTAddress",
          "type": "address"
        }
      ],
      "name": "setOperatorAndTreasuryAndInjectorAndNFTAddresses",
      "outputs": [],
      "stateMutability": "nonpayable",
      "type": "function"
    },
    {
      "inputs": [
        {
          "internalType": "uint256",
          "name": "_tokenId",
          "type": "uint256"
        }
      ],
      "name": "setTokenId",
      "outputs": [],
      "stateMutability": "nonpayable",
      "type": "function"
    },
    {
      "inputs": [
        {
          "internalType": "uint256",
          "name": "_endTime",
          "type": "uint256"
        },
        {
          "internalType": "uint256",
          "name": "_priceTicketInCake",
          "type": "uint256"
        },
        {
          "internalType": "uint256",
          "name": "_discountDivisor",
          "type": "uint256"
        }
      ],
      "name": "startLottery",
      "outputs": [],
      "stateMutability": "nonpayable",
      "type": "function"
    },
    {
      "inputs": [],
      "name": "tokenId",
      "outputs": [
        {
          "internalType": "uint256",
          "name": "",
          "type": "uint256"
        }
      ],
      "stateMutability": "view",
      "type": "function"
    },
    {
      "inputs": [
        {
          "internalType": "address",
          "name": "newOwner",
          "type": "address"
        }
      ],
      "name": "transferOwnership",
      "outputs": [],
      "stateMutability": "nonpayable",
      "type": "function"
    },
    {
      "inputs": [],
      "name": "treasuryAddress",
      "outputs": [
        {
          "internalType": "address",
          "name": "",
          "type": "address"
        }
      ],
      "stateMutability": "view",
      "type": "function"
    },
    {
      "inputs": [],
      "name": "viewCurrentLotteryId",
      "outputs": [
        {
          "internalType": "uint256",
          "name": "",
          "type": "uint256"
        }
      ],
      "stateMutability": "view",
      "type": "function"
    },
    {
      "inputs": [
        {
          "internalType": "uint256",
          "name": "_lotteryId",
          "type": "uint256"
        }
      ],
      "name": "viewLottery",
      "outputs": [
        {
          "components": [
            {
              "internalType": "enum PancakeSwapLottery.Status",
              "name": "status",
              "type": "uint8"
            },
            {
              "internalType": "uint256",
              "name": "startTime",
              "type": "uint256"
            },
            {
              "internalType": "uint256",
              "name": "endTime",
              "type": "uint256"
            },
            {
              "internalType": "uint256",
              "name": "priceTicketInCake",
              "type": "uint256"
            },
            {
              "internalType": "uint256",
              "name": "discountDivisor",
              "type": "uint256"
            },
            {
              "internalType": "uint256",
              "name": "firstTicketId",
              "type": "uint256"
            },
            {
              "internalType": "uint256",
              "name": "amountCollectedInCake",
              "type": "uint256"
            },
            {
              "internalType": "uint32",
              "name": "finalNumber",
              "type": "uint32"
            }
          ],
          "internalType": "struct PancakeSwapLottery.Lottery",
          "name": "",
          "type": "tuple"
        }
      ],
      "stateMutability": "view",
      "type": "function"
    },
    {
      "inputs": [
        {
          "internalType": "uint256[]",
          "name": "_ticketIds",
          "type": "uint256[]"
        }
      ],
      "name": "viewNumbersAndStatusesForTicketIds",
      "outputs": [
        {
          "internalType": "uint32[]",
          "name": "",
          "type": "uint32[]"
        },
        {
          "internalType": "bool[]",
          "name": "",
          "type": "bool[]"
        }
      ],
      "stateMutability": "view",
      "type": "function"
    },
    {
      "inputs": [
        {
          "internalType": "address",
          "name": "_user",
          "type": "address"
        },
        {
          "internalType": "uint256",
          "name": "_lotteryId",
          "type": "uint256"
        },
        {
          "internalType": "uint256",
          "name": "_cursor",
          "type": "uint256"
        },
        {
          "internalType": "uint256",
          "name": "_size",
          "type": "uint256"
        }
      ],
      "name": "viewUserInfoForLotteryId",
      "outputs": [
        {
          "internalType": "uint256[]",
          "name": "",
          "type": "uint256[]"
        },
        {
          "internalType": "uint32[]",
          "name": "",
          "type": "uint32[]"
        },
        {
          "internalType": "bool[]",
          "name": "",
          "type": "bool[]"
        },
        {
          "internalType": "uint256",
          "name": "",
          "type": "uint256"
        }
      ],
      "stateMutability": "view",
      "type": "function"
    }
  ],
  "bytecode": "0x608060405260646009556802b5e3af16b1880000600a556611c37937e08000600b553480156200002e57600080fd5b506040516200400038038062004000833981016040819052620000519162000102565b6001600055620000613362000093565b600d80546001600160a01b039384166001600160a01b031991821617909155600e805492909316911617905562000139565b600180546001600160a01b038381166001600160a01b0319831681179093556040519116919082907f8be0079c531659141344cd1fd0a4f28419497f9722a3daafe3b4186f6b6457e090600090a35050565b80516001600160a01b0381168114620000fd57600080fd5b919050565b6000806040838503121562000115578182fd5b6200012083620000e5565b91506200013060208401620000e5565b90509250929050565b613eb780620001496000396000f3fe608060405234801561001057600080fd5b506004361061025c5760003560e01c80637cb583bd11610145578063c4937ab9116100bd578063db19da0d1161008c578063e49eb0da11610071578063e49eb0da14610530578063edd19b5d14610543578063f2fde38b1461055657600080fd5b8063db19da0d14610506578063dcbad90d1461051057600080fd5b8063c4937ab9146104ad578063c5f956af146104c0578063c929ccf3146104e0578063da7429f8146104f357600080fd5b80638da5cb5b1161011457806398359fa1116100f957806398359fa1146104675780639c3846531461047a5780639d8ca5311461049a57600080fd5b80638da5cb5b146104285780638fc3539a1461044657600080fd5b80637cb583bd1461028d57806380a06160146103ed5780638627df46146103f55780638904bf2f1461040857600080fd5b80632cff0b6d116101d8578063471aeab4116101a75780636b8737881161018c5780636b873788146103c95780636be4097c146103dc578063715018a6146103e557600080fd5b8063471aeab414610391578063686465b8146103a457600080fd5b80632cff0b6d14610342578063310c87cc1461035557806331feb565146103755780633f138d4b1461037e57600080fd5b806317d70f7c1161022f5780631fe86c6b116102145780631fe86c6b146103045780632423807a1461030d578063249167fc1461032d57600080fd5b806317d70f7c146102f25780631f73664b146102fb57600080fd5b806305531eeb1461026157806307fb5a9c1461028d578063127effb2146102a457806312a9769d146102e9575b600080fd5b61027461026f366004613985565b610569565b6040516102849493929190613b94565b60405180910390f35b61029661012c81565b604051908152602001610284565b6003546102c49073ffffffffffffffffffffffffffffffffffffffff1681565b60405173ffffffffffffffffffffffffffffffffffffffff9091168152602001610284565b610296600c5481565b61029660085481565b610296600a5481565b61029660095481565b61032061031b366004613a1d565b610a1c565b6040516102849190613c87565b61034061033b366004613909565b610b52565b005b610340610350366004613ab8565b610e13565b6005546102c49073ffffffffffffffffffffffffffffffffffffffff1681565b610296600b5481565b61034061038c36600461395c565b6113e9565b61034061039f366004613a97565b6114ea565b6007546103b49063ffffffff1681565b60405163ffffffff9091168152602001610284565b6103406103d7366004613a1d565b6116c4565b61029660065481565b610340611738565b600654610296565b610340610403366004613a97565b61174c565b600d546102c49073ffffffffffffffffffffffffffffffffffffffff1681565b60015473ffffffffffffffffffffffffffffffffffffffff166102c4565b6104596104543660046139bd565b611c5d565b604051610284929190613c08565b6103406104753660046138ef565b611f35565b6002546102c49073ffffffffffffffffffffffffffffffffffffffff1681565b6103406104a8366004613a1d565b6121f0565b6102966104bb366004613ab8565b61257c565b6004546102c49073ffffffffffffffffffffffffffffffffffffffff1681565b6103406104ee366004613a1d565b612666565b610340610501366004613a97565b6128bb565b6102966205472c81565b600e546102c49073ffffffffffffffffffffffffffffffffffffffff1681565b61034061053e366004613a4d565b612938565b610340610551366004613a1d565b612eb6565b6103406105643660046138ef565b6132f2565b73ffffffffffffffffffffffffffffffffffffffff84166000908152601160209081526040808320868452909152812054606091829182919085906105ae8882613db2565b8211156105c2576105bf8882613db2565b91505b60008267ffffffffffffffff811115610604577f4e487b7100000000000000000000000000000000000000000000000000000000600052604160045260246000fd5b60405190808252806020026020018201604052801561062d578160200160208202803683370190505b50905060008367ffffffffffffffff811115610672577f4e487b7100000000000000000000000000000000000000000000000000000000600052604160045260246000fd5b60405190808252806020026020018201604052801561069b578160200160208202803683370190505b50905060008467ffffffffffffffff8111156106e0577f4e487b7100000000000000000000000000000000000000000000000000000000600052604160045260246000fd5b604051908082528060200260200182016040528015610709578160200160208202803683370190505b50905060005b858110156109f657601160008f73ffffffffffffffffffffffffffffffffffffffff1673ffffffffffffffffffffffffffffffffffffffff16815260200190815260200160002060008e81526020019081526020016000208c826107739190613d24565b815481106107aa577f4e487b7100000000000000000000000000000000000000000000000000000000600052603260045260246000fd5b90600052602060002001548482815181106107ee577f4e487b7100000000000000000000000000000000000000000000000000000000600052603260045260246000fd5b60200260200101818152505060106000858381518110610837577f4e487b7100000000000000000000000000000000000000000000000000000000600052603260045260246000fd5b6020026020010151815260200190815260200160002060000160009054906101000a900463ffffffff1683828151811061089a577f4e487b7100000000000000000000000000000000000000000000000000000000600052603260045260246000fd5b602002602001019063ffffffff16908163ffffffff1681525050600073ffffffffffffffffffffffffffffffffffffffff1660106000868481518110610909577f4e487b7100000000000000000000000000000000000000000000000000000000600052603260045260246000fd5b602090810291909101810151825281019190915260400160002054640100000000900473ffffffffffffffffffffffffffffffffffffffff161415610998576001828281518110610983577f4e487b7100000000000000000000000000000000000000000000000000000000600052603260045260246000fd5b911515602092830291909101909101526109e4565b60008282815181106109d3577f4e487b7100000000000000000000000000000000000000000000000000000000600052603260045260246000fd5b911515602092830291909101909101525b806109ee81613df5565b91505061070f565b50828282610a04888f613d24565b98509850985098505050505050945094509450949050565b610a6b6040805161010081019091528060008152602001600081526020016000815260200160008152602001600081526020016000815260200160008152602001600063ffffffff1681525090565b6000828152600f602052604090819020815161010081019092528054829060ff166003811115610ac4577f4e487b7100000000000000000000000000000000000000000000000000000000600052602160045260246000fd5b6003811115610afc577f4e487b7100000000000000000000000000000000000000000000000000000000600052602160045260246000fd5b815260018201546020820152600282015460408201526003820154606082015260048201546080820152600582015460a0820152600682015460c082015260079091015463ffffffff1660e09091015292915050565b610b5a6133a9565b73ffffffffffffffffffffffffffffffffffffffff8416610bdc576040517f08c379a000000000000000000000000000000000000000000000000000000000815260206004820152601660248201527f43616e6e6f74206265207a65726f20616464726573730000000000000000000060448201526064015b60405180910390fd5b73ffffffffffffffffffffffffffffffffffffffff8316610c59576040517f08c379a000000000000000000000000000000000000000000000000000000000815260206004820152601660248201527f43616e6e6f74206265207a65726f2061646472657373000000000000000000006044820152606401610bd3565b73ffffffffffffffffffffffffffffffffffffffff8216610cd6576040517f08c379a000000000000000000000000000000000000000000000000000000000815260206004820152601660248201527f43616e6e6f74206265207a65726f2061646472657373000000000000000000006044820152606401610bd3565b73ffffffffffffffffffffffffffffffffffffffff8116610d53576040517f08c379a000000000000000000000000000000000000000000000000000000000815260206004820152601660248201527f43616e6e6f74206265207a65726f2061646472657373000000000000000000006044820152606401610bd3565b6003805473ffffffffffffffffffffffffffffffffffffffff8681167fffffffffffffffffffffffff000000000000000000000000000000000000000092831681179093556004805487831690841681179091556002805487841690851681179091556005805493871693909416831790935560408051948552602085019190915283019190915260608201527ffaa5a6d898018caa25925a386a8fbac436351bde8b2aa41e5e59d05138e721b09060800160405180910390a150505050565b60035473ffffffffffffffffffffffffffffffffffffffff163314610e94576040517f08c379a000000000000000000000000000000000000000000000000000000000815260206004820152600c60248201527f4e6f74206f70657261746f7200000000000000000000000000000000000000006044820152606401610bd3565b6005546040517f70a0823100000000000000000000000000000000000000000000000000000000815230600482015260009173ffffffffffffffffffffffffffffffffffffffff16906370a082319060240160206040518083038186803b158015610efe57600080fd5b505afa158015610f12573d6000803e3d6000fd5b505050506040513d601f19601f82011682018060405250810190610f369190613a35565b11610f9d576040517f08c379a000000000000000000000000000000000000000000000000000000000815260206004820152601560248201527f5072697a65204e4654206e6f742070726573656e7400000000000000000000006044820152606401610bd3565b600060085411611009576040517f08c379a000000000000000000000000000000000000000000000000000000000815260206004820152601860248201527f546f6b656e496420686173206e6f74206265656e2073657400000000000000006044820152606401610bd3565b6006541580611064575060036006546000908152600f602052604090205460ff166003811115611062577f4e487b7100000000000000000000000000000000000000000000000000000000600052602160045260246000fd5b145b6110ca576040517f08c379a000000000000000000000000000000000000000000000000000000000815260206004820152601960248201527f4e6f742074696d6520746f207374617274206c6f7474657279000000000000006044820152606401610bd3565b61012c6110d74285613db2565b1180156110ef57506205472c6110ed4285613db2565b105b611155576040517f08c379a000000000000000000000000000000000000000000000000000000000815260206004820152601f60248201527f4c6f7474657279206c656e677468206f757473696465206f662072616e6765006044820152606401610bd3565b600b5482101580156111695750600a548211155b6111cf576040517f08c379a000000000000000000000000000000000000000000000000000000000815260206004820152601160248201527f4f757473696465206f66206c696d6974730000000000000000000000000000006044820152606401610bd3565b61012c81101561123b576040517f08c379a000000000000000000000000000000000000000000000000000000000815260206004820152601860248201527f446973636f756e742064697669736f7220746f6f206c6f7700000000000000006044820152606401610bd3565b6006805490600061124b83613df5565b909155505060408051610100810190915280600181524260208083019190915260408083018790526060830186905260808301859052600060a08401819052600c5460c085015260e09093018390526006548352600f90915290208151815482907fffffffffffffffffffffffffffffffffffffffffffffffffffffffffffffff00166001836003811115611309577f4e487b7100000000000000000000000000000000000000000000000000000000600052602160045260246000fd5b0217905550602082810151600183015560408084015160028401556060808501516003850155608080860151600486015560a080870151600587015560c087015160068088019190915560e090970151600796870180547fffffffffffffffffffffffffffffffffffffffffffffffffffffffff000000001663ffffffff92831617905596549554600c5485514281529687018c90529486018a90529096169184019190915282015290917f367e70f8c0e0c0a6504d92172bda155c02022d532fc85b5d66a9c49e31c8bc77910160405180910390a250506000600c5550565b6113f16133a9565b600d5473ffffffffffffffffffffffffffffffffffffffff83811691161415611476576040517f08c379a000000000000000000000000000000000000000000000000000000000815260206004820152601460248201527f43616e6e6f742062652043414b4520746f6b656e0000000000000000000000006044820152606401610bd3565b61149773ffffffffffffffffffffffffffffffffffffffff8316338361342a565b6040805173ffffffffffffffffffffffffffffffffffffffff84168152602081018390527f74545154aac348a3eac92596bd1971957ca94795f4e954ec5f613b55fab78129910160405180910390a15050565b60015473ffffffffffffffffffffffffffffffffffffffff16331480611527575060025473ffffffffffffffffffffffffffffffffffffffff1633145b61158d576040517f08c379a000000000000000000000000000000000000000000000000000000000815260206004820152601560248201527f4e6f74206f776e6572206f7220696e6a6563746f7200000000000000000000006044820152606401610bd3565b60016000838152600f602052604090205460ff1660038111156115d9577f4e487b7100000000000000000000000000000000000000000000000000000000600052602160045260246000fd5b14611640576040517f08c379a000000000000000000000000000000000000000000000000000000000815260206004820152601060248201527f4c6f7474657279206e6f74206f70656e000000000000000000000000000000006044820152606401610bd3565b600d546116659073ffffffffffffffffffffffffffffffffffffffff16333084613503565b6000828152600f602052604081206006018054839290611686908490613d24565b909155505060405181815282907f1bbd659dd628a25f7ff2eabb69c74a56939c539728282275c1c9c1a2d3e340499060200160405180910390a25050565b6116cc6133a9565b80611733576040517f08c379a000000000000000000000000000000000000000000000000000000000815260206004820152600b60248201527f4d757374206265203e20300000000000000000000000000000000000000000006044820152606401610bd3565b600955565b6117406133a9565b61174a6000613567565b565b333b156117b5576040517f08c379a000000000000000000000000000000000000000000000000000000000815260206004820152601460248201527f436f6e7472616374206e6f7420616c6c6f7765640000000000000000000000006044820152606401610bd3565b33321461181e576040517f08c379a000000000000000000000000000000000000000000000000000000000815260206004820152601a60248201527f50726f787920636f6e7472616374206e6f7420616c6c6f7765640000000000006044820152606401610bd3565b6002600054141561188b576040517f08c379a000000000000000000000000000000000000000000000000000000000815260206004820152601f60248201527f5265656e7472616e637947756172643a207265656e7472616e742063616c6c006044820152606401610bd3565b6002600055806118f7576040517f08c379a000000000000000000000000000000000000000000000000000000000815260206004820152601e60248201527f596f75206d75737420627574206174206c656173742031207469636b657400006044820152606401610bd3565b600954811115611963576040517f08c379a000000000000000000000000000000000000000000000000000000000815260206004820152601060248201527f546f6f206d616e79207469636b657473000000000000000000000000000000006044820152606401610bd3565b60016000838152600f602052604090205460ff1660038111156119af577f4e487b7100000000000000000000000000000000000000000000000000000000600052602160045260246000fd5b14611a16576040517f08c379a000000000000000000000000000000000000000000000000000000000815260206004820152601360248201527f4c6f7474657279206973206e6f74206f70656e000000000000000000000000006044820152606401610bd3565b6000828152600f60205260409020600201544210611a90576040517f08c379a000000000000000000000000000000000000000000000000000000000815260206004820152600f60248201527f4c6f7474657279206973206f76657200000000000000000000000000000000006044820152606401610bd3565b6000828152600f602052604081206004810154600390910154611ab49190846135de565b600d54909150611adc9073ffffffffffffffffffffffffffffffffffffffff16333084613503565b6000838152600f602052604081206006018054839290611afd908490613d24565b909155505060075463ffffffff165b600754611b2090849063ffffffff16613d24565b8163ffffffff161015611c1b57336000818152601160209081526040808320888452825280832060078054825460018101845592865284862063ffffffff918216930192909255825180840184528288168152808501968752815483168652601090945291842092518354955173ffffffffffffffffffffffffffffffffffffffff16640100000000027fffffffffffffffff0000000000000000000000000000000000000000000000009096169082161794909417909155805484931691611be883613e2e565b91906101000a81548163ffffffff021916908363ffffffff16021790555050508080611c1390613e2e565b915050611b0c565b50604051828152839033907fd7d247b583de1023852eef87b48f54354dbec771d01bc2cc49e96094efc322b99060200160405180910390a35050600160005550565b6060808260008167ffffffffffffffff811115611ca3577f4e487b7100000000000000000000000000000000000000000000000000000000600052604160045260246000fd5b604051908082528060200260200182016040528015611ccc578160200160208202803683370190505b50905060008267ffffffffffffffff811115611d11577f4e487b7100000000000000000000000000000000000000000000000000000000600052604160045260246000fd5b604051908082528060200260200182016040528015611d3a578160200160208202803683370190505b50905060005b83811015611f265760106000898984818110611d85577f4e487b7100000000000000000000000000000000000000000000000000000000600052603260045260246000fd5b90506020020135815260200190815260200160002060000160009054906101000a900463ffffffff16838281518110611de7577f4e487b7100000000000000000000000000000000000000000000000000000000600052603260045260246000fd5b63ffffffff9092166020928302919091019091015260006010818a8a85818110611e3a577f4e487b7100000000000000000000000000000000000000000000000000000000600052603260045260246000fd5b6020908102929092013583525081019190915260400160002054640100000000900473ffffffffffffffffffffffffffffffffffffffff161415611ec8576001828281518110611eb3577f4e487b7100000000000000000000000000000000000000000000000000000000600052603260045260246000fd5b91151560209283029190910190910152611f14565b6000828281518110611f03577f4e487b7100000000000000000000000000000000000000000000000000000000600052603260045260246000fd5b911515602092830291909101909101525b80611f1e81613df5565b915050611d40565b509093509150505b9250929050565b611f3d6133a9565b6006541580611f98575060036006546000908152600f602052604090205460ff166003811115611f96577f4e487b7100000000000000000000000000000000000000000000000000000000600052602160045260246000fd5b145b611ffe576040517f08c379a000000000000000000000000000000000000000000000000000000000815260206004820152601860248201527f4c6f7474657279206e6f7420696e20636c61696d61626c6500000000000000006044820152606401610bd3565b60065460075460405173ffffffffffffffffffffffffffffffffffffffff84169263b37217a4926120689263ffffffff9091169060200191825260e01b7fffffffff0000000000000000000000000000000000000000000000000000000016602082015260240190565b604080518083037fffffffffffffffffffffffffffffffffffffffffffffffffffffffffffffffe001815290829052805160209091012060e083901b7fffffffff000000000000000000000000000000000000000000000000000000001682526004820152602401600060405180830381600087803b1580156120ea57600080fd5b505af11580156120fe573d6000803e3d6000fd5b505050508073ffffffffffffffffffffffffffffffffffffffff1663a1c4f55a6040518163ffffffff1660e01b815260040160206040518083038186803b15801561214857600080fd5b505afa15801561215c573d6000803e3d6000fd5b505050506040513d601f19601f820116820180604052508101906121809190613ae3565b50600e80547fffffffffffffffffffffffff00000000000000000000000000000000000000001673ffffffffffffffffffffffffffffffffffffffff83169081179091556040517f383f8cb39dfa7c3fb901a460dd449ea924868f0a92ff03da64740fffa5f1de6290600090a250565b60035473ffffffffffffffffffffffffffffffffffffffff163314612271576040517f08c379a000000000000000000000000000000000000000000000000000000000815260206004820152600c60248201527f4e6f74206f70657261746f7200000000000000000000000000000000000000006044820152606401610bd3565b600260005414156122de576040517f08c379a000000000000000000000000000000000000000000000000000000000815260206004820152601f60248201527f5265656e7472616e637947756172643a207265656e7472616e742063616c6c006044820152606401610bd3565b600260005560016000828152600f602052604090205460ff16600381111561232f577f4e487b7100000000000000000000000000000000000000000000000000000000600052602160045260246000fd5b14612396576040517f08c379a000000000000000000000000000000000000000000000000000000000815260206004820152601060248201527f4c6f7474657279206e6f74206f70656e000000000000000000000000000000006044820152606401610bd3565b6000818152600f60205260409020600201544211612410576040517f08c379a000000000000000000000000000000000000000000000000000000000815260206004820152601060248201527f4c6f7474657279206e6f74206f766572000000000000000000000000000000006044820152606401610bd3565b600e5460075460405173ffffffffffffffffffffffffffffffffffffffff9092169163b37217a49161247b91859163ffffffff169060200191825260e01b7fffffffff0000000000000000000000000000000000000000000000000000000016602082015260240190565b604080518083037fffffffffffffffffffffffffffffffffffffffffffffffffffffffffffffffe001815290829052805160209091012060e083901b7fffffffff000000000000000000000000000000000000000000000000000000001682526004820152602401600060405180830381600087803b1580156124fd57600080fd5b505af1158015612511573d6000803e3d6000fd5b5050506000828152600f602052604080822080547fffffffffffffffffffffffffffffffffffffffffffffffffffffffffffffff00166002179055518392507f8bc84e5d97533c428862626ac41fe7bc09b1ea2ed5e9e330d84092db8df153669190a2506001600055565b600061012c8410156125ea576040517f08c379a000000000000000000000000000000000000000000000000000000000815260206004820152601f60248201527f4d757374206265203e3d204d494e5f444953434f554e545f44495649534f52006044820152606401610bd3565b81612651576040517f08c379a000000000000000000000000000000000000000000000000000000000815260206004820152601d60248201527f4e756d626572206f66207469636b657473206d757374206265203e20300000006044820152606401610bd3565b61265c8484846135de565b90505b9392505050565b60035473ffffffffffffffffffffffffffffffffffffffff1633146126e7576040517f08c379a000000000000000000000000000000000000000000000000000000000815260206004820152600c60248201527f4e6f74206f70657261746f7200000000000000000000000000000000000000006044820152606401610bd3565b6005546040517f70a0823100000000000000000000000000000000000000000000000000000000815230600482015260009173ffffffffffffffffffffffffffffffffffffffff16906370a082319060240160206040518083038186803b15801561275157600080fd5b505afa158015612765573d6000803e3d6000fd5b505050506040513d601f19601f820116820180604052508101906127899190613a35565b116127f0576040517f08c379a000000000000000000000000000000000000000000000000000000000815260206004820152601560248201527f5072697a65204e4654206e6f742070726573656e7400000000000000000000006044820152606401610bd3565b60008111612880576040517f08c379a000000000000000000000000000000000000000000000000000000000815260206004820152602160248201527f746f6b656e4964206d7573742062652067726561746572207468616e207a657260448201527f6f000000000000000000000000000000000000000000000000000000000000006064820152608401610bd3565b60088190556040518181527f8a1767404395cfcd1267c6537e872277dde277a29ac6dea742a111469f324a589060200160405180910390a150565b6128c36133a9565b8082111561292d576040517f08c379a000000000000000000000000000000000000000000000000000000000815260206004820152601b60248201527f6d696e5072696365206d757374206265203c206d6178507269636500000000006044820152606401610bd3565b600b91909155600a55565b333b156129a1576040517f08c379a000000000000000000000000000000000000000000000000000000000815260206004820152601460248201527f436f6e7472616374206e6f7420616c6c6f7765640000000000000000000000006044820152606401610bd3565b333214612a0a576040517f08c379a000000000000000000000000000000000000000000000000000000000815260206004820152601a60248201527f50726f787920636f6e7472616374206e6f7420616c6c6f7765640000000000006044820152606401610bd3565b60026000541415612a77576040517f08c379a000000000000000000000000000000000000000000000000000000000815260206004820152601f60248201527f5265656e7472616e637947756172643a207265656e7472616e742063616c6c006044820152606401610bd3565b600260005580612ae3576040517f08c379a000000000000000000000000000000000000000000000000000000000815260206004820152601160248201527f4c656e677468206d757374206265203e300000000000000000000000000000006044820152606401610bd3565b600954811115612b4f576040517f08c379a000000000000000000000000000000000000000000000000000000000815260206004820152601060248201527f546f6f206d616e79207469636b657473000000000000000000000000000000006044820152606401610bd3565b60036000848152600f602052604090205460ff166003811115612b9b577f4e487b7100000000000000000000000000000000000000000000000000000000600052602160045260246000fd5b14612c02576040517f08c379a000000000000000000000000000000000000000000000000000000000815260206004820152601560248201527f4c6f7474657279206e6f7420636c61696d61626c6500000000000000000000006044820152606401610bd3565b6000838152600f602052604081206007015463ffffffff16815b83811015612e6c576000858583818110612c5f577f4e487b7100000000000000000000000000000000000000000000000000000000600052603260045260246000fd5b90506020020135905080600f6000898152602001908152602001600020600501541115612ce8576040517f08c379a000000000000000000000000000000000000000000000000000000000815260206004820152601060248201527f5469636b6574496420746f6f206c6f77000000000000000000000000000000006044820152606401610bd3565b600081815260106020526040902054640100000000900473ffffffffffffffffffffffffffffffffffffffff163314612d7d576040517f08c379a000000000000000000000000000000000000000000000000000000000815260206004820152600d60248201527f4e6f7420746865206f776e6572000000000000000000000000000000000000006044820152606401610bd3565b600081815260106020526040902080547fffffffffffffffff0000000000000000000000000000000000000000ffffffff16905563ffffffff8316811415612e59576005546008546040517f42842e0e000000000000000000000000000000000000000000000000000000008152306004820152336024820152604481019190915273ffffffffffffffffffffffffffffffffffffffff909116906342842e0e90606401600060405180830381600087803b158015612e3b57600080fd5b505af1158015612e4f573d6000803e3d6000fd5b5050600060085550505b5080612e6481613df5565b915050612c1c565b506040805183815260208101859052869133917f0f5fca62da8fb5d95525b49e5eaa7b20bc6bd9e2f6b64b493442d1c0bd6ef486910160405180910390a350506001600055505050565b60035473ffffffffffffffffffffffffffffffffffffffff163314612f37576040517f08c379a000000000000000000000000000000000000000000000000000000000815260206004820152600c60248201527f4e6f74206f70657261746f7200000000000000000000000000000000000000006044820152606401610bd3565b60026000541415612fa4576040517f08c379a000000000000000000000000000000000000000000000000000000000815260206004820152601f60248201527f5265656e7472616e637947756172643a207265656e7472616e742063616c6c006044820152606401610bd3565b60026000818155828152600f602052604090205460ff166003811115612ff3577f4e487b7100000000000000000000000000000000000000000000000000000000600052602160045260246000fd5b1461305a576040517f08c379a000000000000000000000000000000000000000000000000000000000815260206004820152601160248201527f4c6f7474657279206e6f7420636c6f73650000000000000000000000000000006044820152606401610bd3565b600e60009054906101000a900473ffffffffffffffffffffffffffffffffffffffff1673ffffffffffffffffffffffffffffffffffffffff1663fbe5d9176040518163ffffffff1660e01b815260040160206040518083038186803b1580156130c257600080fd5b505afa1580156130d6573d6000803e3d6000fd5b505050506040513d601f19601f820116820180604052508101906130fa9190613a35565b8114613162576040517f08c379a000000000000000000000000000000000000000000000000000000000815260206004820152601160248201527f4e756d62657273206e6f7420647261776e0000000000000000000000000000006044820152606401610bd3565b600e54604080517fa1c4f55a000000000000000000000000000000000000000000000000000000008152905160009273ffffffffffffffffffffffffffffffffffffffff169163a1c4f55a916004808301926020929190829003018186803b1580156131cd57600080fd5b505afa1580156131e1573d6000803e3d6000fd5b505050506040513d601f19601f820116820180604052508101906132059190613ae3565b6000838152600f6020526040812060078101805463ffffffff85167fffffffffffffffffffffffffffffffffffffffffffffffffffffffff0000000090911617905580547fffffffffffffffffffffffffffffffffffffffffffffffffffffffffffffff0016600317815560060154600454600d54939450919290916132a59173ffffffffffffffffffffffffffffffffffffffff90811691168361342a565b6006546040805163ffffffff86168152602081018590527f98e31a6607b8b15b4d5b91de54f4c09ffe4c4cf162aa532c70b5213754e2e703910160405180910390a2505060016000555050565b6132fa6133a9565b73ffffffffffffffffffffffffffffffffffffffff811661339d576040517f08c379a000000000000000000000000000000000000000000000000000000000815260206004820152602660248201527f4f776e61626c653a206e6577206f776e657220697320746865207a65726f206160448201527f64647265737300000000000000000000000000000000000000000000000000006064820152608401610bd3565b6133a681613567565b50565b60015473ffffffffffffffffffffffffffffffffffffffff16331461174a576040517f08c379a000000000000000000000000000000000000000000000000000000000815260206004820181905260248201527f4f776e61626c653a2063616c6c6572206973206e6f7420746865206f776e65726044820152606401610bd3565b60405173ffffffffffffffffffffffffffffffffffffffff83166024820152604481018290526134fe9084907fa9059cbb00000000000000000000000000000000000000000000000000000000906064015b604080517fffffffffffffffffffffffffffffffffffffffffffffffffffffffffffffffe08184030181529190526020810180517bffffffffffffffffffffffffffffffffffffffffffffffffffffffff167fffffffff0000000000000000000000000000000000000000000000000000000090931692909217909152613615565b505050565b60405173ffffffffffffffffffffffffffffffffffffffff808516602483015283166044820152606481018290526135619085907f23b872dd000000000000000000000000000000000000000000000000000000009060840161347c565b50505050565b6001805473ffffffffffffffffffffffffffffffffffffffff8381167fffffffffffffffffffffffff0000000000000000000000000000000000000000831681179093556040519116919082907f8be0079c531659141344cd1fd0a4f28419497f9722a3daafe3b4186f6b6457e090600090a35050565b600083826135ed826001613d24565b6135f79190613db2565b6136018486613d75565b61360b9190613d75565b61265c9190613d3c565b6000613677826040518060400160405280602081526020017f5361666545524332303a206c6f772d6c6576656c2063616c6c206661696c65648152508573ffffffffffffffffffffffffffffffffffffffff166137219092919063ffffffff16565b8051909150156134fe578080602001905181019061369591906139fd565b6134fe576040517f08c379a000000000000000000000000000000000000000000000000000000000815260206004820152602a60248201527f5361666545524332303a204552433230206f7065726174696f6e20646964206e60448201527f6f742073756363656564000000000000000000000000000000000000000000006064820152608401610bd3565b606061265c84846000858573ffffffffffffffffffffffffffffffffffffffff85163b6137aa576040517f08c379a000000000000000000000000000000000000000000000000000000000815260206004820152601d60248201527f416464726573733a2063616c6c20746f206e6f6e2d636f6e74726163740000006044820152606401610bd3565b6000808673ffffffffffffffffffffffffffffffffffffffff1685876040516137d39190613b78565b60006040518083038185875af1925050503d8060008114613810576040519150601f19603f3d011682016040523d82523d6000602084013e613815565b606091505b5091509150613825828286613830565b979650505050505050565b6060831561383f57508161265f565b82511561384f5782518084602001fd5b816040517f08c379a0000000000000000000000000000000000000000000000000000000008152600401610bd39190613c36565b803573ffffffffffffffffffffffffffffffffffffffff811681146138a757600080fd5b919050565b60008083601f8401126138bd578182fd5b50813567ffffffffffffffff8111156138d4578182fd5b6020830191508360208260051b8501011115611f2e57600080fd5b600060208284031215613900578081fd5b61265f82613883565b6000806000806080858703121561391e578283fd5b61392785613883565b935061393560208601613883565b925061394360408601613883565b915061395160608601613883565b905092959194509250565b6000806040838503121561396e578182fd5b61397783613883565b946020939093013593505050565b6000806000806080858703121561399a578384fd5b6139a385613883565b966020860135965060408601359560600135945092505050565b600080602083850312156139cf578182fd5b823567ffffffffffffffff8111156139e5578283fd5b6139f1858286016138ac565b90969095509350505050565b600060208284031215613a0e578081fd5b8151801515811461265f578182fd5b600060208284031215613a2e578081fd5b5035919050565b600060208284031215613a46578081fd5b5051919050565b600080600060408486031215613a61578283fd5b83359250602084013567ffffffffffffffff811115613a7e578283fd5b613a8a868287016138ac565b9497909650939450505050565b60008060408385031215613aa9578182fd5b50508035926020909101359150565b600080600060608486031215613acc578283fd5b505081359360208301359350604090920135919050565b600060208284031215613af4578081fd5b815163ffffffff8116811461265f578182fd5b6000815180845260208085019450808401835b83811015613b38578151151587529582019590820190600101613b1a565b509495945050505050565b6000815180845260208085019450808401835b83811015613b3857815163ffffffff1687529582019590820190600101613b56565b60008251613b8a818460208701613dc9565b9190910192915050565b6080808252855190820181905260009060209060a0840190828901845b82811015613bcd57815184529284019290840190600101613bb1565b50505083810382850152613be18188613b43565b9150508281036040840152613bf68186613b07565b91505082606083015295945050505050565b604081526000613c1b6040830185613b43565b8281036020840152613c2d8185613b07565b95945050505050565b6020815260008251806020840152613c55816040850160208701613dc9565b601f017fffffffffffffffffffffffffffffffffffffffffffffffffffffffffffffffe0169190910160400192915050565b815161010082019060048110613cc6577f4e487b7100000000000000000000000000000000000000000000000000000000600052602160045260246000fd5b808352506020830151602083015260408301516040830152606083015160608301526080830151608083015260a083015160a083015260c083015160c083015260e0830151613d1d60e084018263ffffffff169052565b5092915050565b60008219821115613d3757613d37613e52565b500190565b600082613d70577f4e487b710000000000000000000000000000000000000000000000000000000081526012600452602481fd5b500490565b6000817fffffffffffffffffffffffffffffffffffffffffffffffffffffffffffffffff0483118215151615613dad57613dad613e52565b500290565b600082821015613dc457613dc4613e52565b500390565b60005b83811015613de4578181015183820152602001613dcc565b838111156135615750506000910152565b60007fffffffffffffffffffffffffffffffffffffffffffffffffffffffffffffffff821415613e2757613e27613e52565b5060010190565b600063ffffffff80831681811415613e4857613e48613e52565b6001019392505050565b7f4e487b7100000000000000000000000000000000000000000000000000000000600052601160045260246000fdfea26469706673582212201dfe8ddefd3f7064c278a475289e3a5a2af079b98dcf0b9d6d9307f4dec4996764736f6c63430008040033",
  "linkReferences": {},
  "deployedLinkReferences": {}
}